{"abi":[{"type":"constructor","inputs":[],"stateMutability":"nonpayable"},{"type":"function","name":"burn","inputs":[{"name":"tickLower","type":"int24","internalType":"int24"},{"name":"tickUpper","type":"int24","internalType":"int24"},{"name":"amount","type":"uint128","internalType":"uint128"}],"outputs":[{"name":"amount0","type":"uint256","internalType":"uint256"},{"name":"amount1","type":"uint256","internalType":"uint256"}],"stateMutability":"nonpayable"},{"type":"function","name":"collect","inputs":[{"name":"recipient","type":"address","internalType":"address"},{"name":"tickLower","type":"int24","internalType":"int24"},{"name":"tickUpper","type":"int24","internalType":"int24"},{"name":"amount0Requested","type":"uint128","internalType":"uint128"},{"name":"amount1Requested","type":"uint128","internalType":"uint128"}],"outputs":[{"name":"amount0","type":"uint128","internalType":"uint128"},{"name":"amount1","type":"uint128","internalType":"uint128"}],"stateMutability":"nonpayable"},{"type":"function","name":"collectProtocol","inputs":[{"name":"recipient","type":"address","internalType":"address"},{"name":"amount0Requested","type":"uint128","internalType":"uint128"},{"name":"amount1Requested","type":"uint128","internalType":"uint128"}],"outputs":[{"name":"amount0","type":"uint128","internalType":"uint128"},{"name":"amount1","type":"uint128","internalType":"uint128"}],"stateMutability":"nonpayable"},{"type":"function","name":"currentDynamicFee","inputs":[],"outputs":[{"name":"","type":"uint24","internalType":"uint24"}],"stateMutability":"view"},{"type":"function","name":"factory","inputs":[],"outputs":[{"name":"","type":"address","internalType":"address"}],"stateMutability":"view"},{"type":"function","name":"fee","inputs":[],"outputs":[{"name":"","type":"uint24","internalType":"uint24"}],"stateMutability":"view"},{"type":"function","name":"feeGrowthGlobal0X128","inputs":[],"outputs":[{"name":"","type":"uint256","internalType":"uint256"}],"stateMutability":"view"},{"type":"function","name":"feeGrowthGlobal1X128","inputs":[],"outputs":[{"name":"","type":"uint256","internalType":"uint256"}],"stateMutability":"view"},{"type":"function","name":"flash","inputs":[{"name":"recipient","type":"address","internalType":"address"},{"name":"amount0","type":"uint256","internalType":"uint256"},{"name":"amount1","type":"uint256","internalType":"uint256"},{"name":"data","type":"bytes","internalType":"bytes"}],"outputs":[],"stateMutability":"nonpayable"},{"type":"function","name":"increaseObservationCardinalityNext","inputs":[{"name":"observationCardinalityNext","type":"uint16","internalType":"uint16"}],"outputs":[],"stateMutability":"nonpayable"},{"type":"function","name":"initialize","inputs":[{"name":"sqrtPriceX96","type":"uint160","internalType":"uint160"}],"outputs":[],"stateMutability":"nonpayable"},{"type":"function","name":"liquidity","inputs":[],"outputs":[{"name":"","type":"uint128","internalType":"uint128"}],"stateMutability":"view"},{"type":"function","name":"maxLiquidityPerTick","inputs":[],"outputs":[{"name":"","type":"uint128","internalType":"uint128"}],"stateMutability":"view"},{"type":"function","name":"mint","inputs":[{"name":"recipient","type":"address","internalType":"address"},{"name":"tickLower","type":"int24","internalType":"int24"},{"name":"tickUpper","type":"int24","internalType":"int24"},{"name":"amount","type":"uint128","internalType":"uint128"},{"name":"data","type":"bytes","internalType":"bytes"}],"outputs":[{"name":"amount0","type":"uint256","internalType":"uint256"},{"name":"amount1","type":"uint256","internalType":"uint256"}],"stateMutability":"nonpayable"},{"type":"function","name":"observations","inputs":[{"name":"","type":"uint256","internalType":"uint256"}],"outputs":[{"name":"blockTimestamp","type":"uint32","internalType":"uint32"},{"name":"tickCumulative","type":"int56","internalType":"int56"},{"name":"secondsPerLiquidityCumulativeX128","type":"uint160","internalType":"uint160"},{"name":"initialized","type":"bool","internalType":"bool"}],"stateMutability":"view"},{"type":"function","name":"observe","inputs":[{"name":"secondsAgos","type":"uint32[]","internalType":"uint32[]"}],"outputs":[{"name":"tickCumulatives","type":"int56[]","internalType":"int56[]"},{"name":"secondsPerLiquidityCumulativeX128s","type":"uint160[]","internalType":"uint160[]"}],"stateMutability":"view"},{"type":"function","name":"positions","inputs":[{"name":"","type":"bytes32","internalType":"bytes32"}],"outputs":[{"name":"liquidity","type":"uint128","internalType":"uint128"},{"name":"feeGrowthInside0LastX128","type":"uint256","internalType":"uint256"},{"name":"feeGrowthInside1LastX128","type":"uint256","internalType":"uint256"},{"name":"tokensOwed0","type":"uint128","internalType":"uint128"},{"name":"tokensOwed1","type":"uint128","internalType":"uint128"}],"stateMutability":"view"},{"type":"function","name":"protocolFees","inputs":[],"outputs":[{"name":"token0","type":"uint128","internalType":"uint128"},{"name":"token1","type":"uint128","internalType":"uint128"}],"stateMutability":"view"},{"type":"function","name":"setFeeProtocol","inputs":[{"name":"feeProtocol0","type":"uint8","internalType":"uint8"},{"name":"feeProtocol1","type":"uint8","internalType":"uint8"}],"outputs":[],"stateMutability":"nonpayable"},{"type":"function","name":"slot0","inputs":[],"outputs":[{"name":"sqrtPriceX96","type":"uint160","internalType":"uint160"},{"name":"tick","type":"int24","internalType":"int24"},{"name":"observationIndex","type":"uint16","internalType":"uint16"},{"name":"observationCardinality","type":"uint16","internalType":"uint16"},{"name":"observationCardinalityNext","type":"uint16","internalType":"uint16"},{"name":"feeProtocol","type":"uint8","internalType":"uint8"},{"name":"unlocked","type":"bool","internalType":"bool"}],"stateMutability":"view"},{"type":"function","name":"snapshotCumulativesInside","inputs":[{"name":"tickLower","type":"int24","internalType":"int24"},{"name":"tickUpper","type":"int24","internalType":"int24"}],"outputs":[{"name":"tickCumulativeInside","type":"int56","internalType":"int56"},{"name":"secondsPerLiquidityInsideX128","type":"uint160","internalType":"uint160"},{"name":"secondsInside","type":"uint32","internalType":"uint32"}],"stateMutability":"view"},{"type":"function","name":"swap","inputs":[{"name":"recipient","type":"address","internalType":"address"},{"name":"zeroForOne","type":"bool","internalType":"bool"},{"name":"amountSpecified","type":"int256","internalType":"int256"},{"name":"sqrtPriceLimitX96","type":"uint160","internalType":"uint160"},{"name":"data","type":"bytes","internalType":"bytes"}],"outputs":[{"name":"amount0","type":"int256","internalType":"int256"},{"name":"amount1","type":"int256","internalType":"int256"}],"stateMutability":"nonpayable"},{"type":"function","name":"tickBitmap","inputs":[{"name":"","type":"int16","internalType":"int16"}],"outputs":[{"name":"","type":"uint256","internalType":"uint256"}],"stateMutability":"view"},{"type":"function","name":"tickSpacing","inputs":[],"outputs":[{"name":"","type":"int24","internalType":"int24"}],"stateMutability":"view"},{"type":"function","name":"ticks","inputs":[{"name":"","type":"int24","internalType":"int24"}],"outputs":[{"name":"liquidityGross","type":"uint128","internalType":"uint128"},{"name":"liquidityNet","type":"int128","internalType":"int128"},{"name":"feeGrowthOutside0X128","type":"uint256","internalType":"uint256"},{"name":"feeGrowthOutside1X128","type":"uint256","internalType":"uint256"},{"name":"tickCumulativeOutside","type":"int56","internalType":"int56"},{"name":"secondsPerLiquidityOutsideX128","type":"uint160","internalType":"uint160"},{"name":"secondsOutside","type":"uint32","internalType":"uint32"},{"name":"initialized","type":"bool","internalType":"bool"}],"stateMutability":"view"},{"type":"function","name":"token0","inputs":[],"outputs":[{"name":"","type":"address","internalType":"address"}],"stateMutability":"view"},{"type":"function","name":"token1","inputs":[],"outputs":[{"name":"","type":"address","internalType":"address"}],"stateMutability":"view"},{"type":"event","name":"Burn","inputs":[{"name":"owner","type":"address","indexed":true,"internalType":"address"},{"name":"tickLower","type":"int24","indexed":true,"internalType":"int24"},{"name":"tickUpper","type":"int24","indexed":true,"internalType":"int24"},{"name":"amount","type":"uint128","indexed":false,"internalType":"uint128"},{"name":"amount0","type":"uint256","indexed":false,"internalType":"uint256"},{"name":"amount1","type":"uint256","indexed":false,"internalType":"uint256"}],"anonymous":false},{"type":"event","name":"Collect","inputs":[{"name":"owner","type":"address","indexed":true,"internalType":"address"},{"name":"recipient","type":"address","indexed":false,"internalType":"address"},{"name":"tickLower","type":"int24","indexed":true,"internalType":"int24"},{"name":"tickUpper","type":"int24","indexed":true,"internalType":"int24"},{"name":"amount0","type":"uint128","indexed":false,"internalType":"uint128"},{"name":"amount1","type":"uint128","indexed":false,"internalType":"uint128"}],"anonymous":false},{"type":"event","name":"CollectProtocol","inputs":[{"name":"sender","type":"address","indexed":true,"internalType":"address"},{"name":"recipient","type":"address","indexed":true,"internalType":"address"},{"name":"amount0","type":"uint128","indexed":false,"internalType":"uint128"},{"name":"amount1","type":"uint128","indexed":false,"internalType":"uint128"}],"anonymous":false},{"type":"event","name":"Flash","inputs":[{"name":"sender","type":"address","indexed":true,"internalType":"address"},{"name":"recipient","type":"address","indexed":true,"internalType":"address"},{"name":"amount0","type":"uint256","indexed":false,"internalType":"uint256"},{"name":"amount1","type":"uint256","indexed":false,"internalType":"uint256"},{"name":"paid0","type":"uint256","indexed":false,"internalType":"uint256"},{"name":"paid1","type":"uint256","indexed":false,"internalType":"uint256"}],"anonymous":false},{"type":"event","name":"IncreaseObservationCardinalityNext","inputs":[{"name":"observationCardinalityNextOld","type":"uint16","indexed":false,"internalType":"uint16"},{"name":"observationCardinalityNextNew","type":"uint16","indexed":false,"internalType":"uint16"}],"anonymous":false},{"type":"event","name":"Initialize","inputs":[{"name":"sqrtPriceX96","type":"uint160","indexed":false,"internalType":"uint160"},{"name":"tick","type":"int24","indexed":false,"internalType":"int24"}],"anonymous":false},{"type":"event","name":"Mint","inputs":[{"name":"sender","type":"address","indexed":false,"internalType":"address"},{"name":"owner","type":"address","indexed":true,"internalType":"address"},{"name":"tickLower","type":"int24","indexed":true,"internalType":"int24"},{"name":"tickUpper","type":"int24","indexed":true,"internalType":"int24"},{"name":"amount","type":"uint128","indexed":false,"internalType":"uint128"},{"name":"amount0","type":"uint256","indexed":false,"internalType":"uint256"},{"name":"amount1","type":"uint256","indexed":false,"internalType":"uint256"}],"anonymous":false},{"type":"event","name":"SetFeeProtocol","inputs":[{"name":"feeProtocol0Old","type":"uint8","indexed":false,"internalType":"uint8"},{"name":"feeProtocol1Old","type":"uint8","indexed":false,"internalType":"uint8"},{"name":"feeProtocol0New","type":"uint8","indexed":false,"internalType":"uint8"},{"name":"feeProtocol1New","type":"uint8","indexed":false,"internalType":"uint8"}],"anonymous":false},{"type":"event","name":"Swap","inputs":[{"name":"sender","type":"address","indexed":true,"internalType":"address"},{"name":"recipient","type":"address","indexed":true,"internalType":"address"},{"name":"amount0","type":"int256","indexed":false,"internalType":"int256"},{"name":"amount1","type":"int256","indexed":false,"internalType":"int256"},{"name":"sqrtPriceX96","type":"uint160","indexed":false,"internalType":"uint160"},{"name":"liquidity","type":"uint128","indexed":false,"internalType":"uint128"},{"name":"tick","type":"int24","indexed":false,"internalType":"int24"}],"anonymous":false}],"bytecode":{"object":"0x6101606040523480156200001257600080fd5b503060601b60805260408051630890357360e41b81529051600091339163890357309160048082019260a092909190829003018186803b1580156200005657600080fd5b505afa1580156200006b573d6000803e3d6000fd5b505050506040513d60a08110156200008257600080fd5b508051602080830151604084015160608086015160809096015160e896871b6001600160e81b0319166101005291811b6001600160601b031990811660e05292811b831660c0529390931b1660a052600282810b900b90921b610120529150620000f79082906200010f811b62002b1417901c565b60801b6001600160801b03191661014052506200017d565b60008082600281900b620d89e719816200012557fe5b05029050600083600281900b620d89e8816200013d57fe5b0502905060008460020b83830360020b816200015557fe5b0560010190508062ffffff166001600160801b038016816200017357fe5b0495945050505050565b60805160601c60a05160601c60c05160601c60e05160601c6101005160e81c6101205160e81c6101405160801c615c146200024560003980611fe05280614cba5280614cf1525080610bfb52806128ce5280614d255280614d575250806119b252806119e952806129165250806111af5280611a6c5280611edb528061241b52806128f25280613e235250806108cd52806112dd5280611a3b5280611e7552806123955280613cda52508061206d528061225452806128aa525080612b8b5250615c146000f3fe608060405234801561001057600080fd5b50600436106101a95760003560e01c806356ccede7116100f9578063c45a015511610097578063ddca3f4311610071578063ddca3f4314610813578063f30583991461081b578063f30dba9314610823578063f637731d146108a5576101a9565b8063c45a0155146107e4578063d0c93a7c146107ec578063d21220a71461080b576101a9565b806385b66729116100d357806385b667291461060b578063883bdbfd14610648578063a34123a71461074f578063a38807f214610789576101a9565b806356ccede7146105bb57806370cf754a146105db5780638206a4d1146105e3576101a9565b80633850c7bd11610166578063490e6cbc11610140578063490e6cbc146104675780634f1eb3d8146104f1578063514ea4bf146105425780635339c2961461059b576101a9565b80633850c7bd146103545780633c8a7d8d146103ad578063461413191461044d576101a9565b80630dfe1681146101ae578063128acb08146101d25780631a6865021461027f5780631ad8b03b146102a3578063252c09d7146102da57806332148f6714610331575b600080fd5b6101b66108cb565b604080516001600160a01b039092168252519081900360200190f35b610266600480360360a08110156101e857600080fd5b6001600160a01b0382358116926020810135151592604082013592606083013516919081019060a081016080820135600160201b81111561022857600080fd5b82018360208201111561023a57600080fd5b803590602001918460018302840111600160201b8311171561025b57600080fd5b5090925090506108ef565b6040805192835260208301919091528051918290030190f35b610287611495565b604080516001600160801b039092168252519081900360200190f35b6102ab6114a4565b60405180836001600160801b03168152602001826001600160801b031681526020019250505060405180910390f35b6102f7600480360360208110156102f057600080fd5b50356114be565b6040805163ffffffff909516855260069390930b60208501526001600160a01b039091168383015215156060830152519081900360800190f35b6103526004803603602081101561034757600080fd5b503561ffff16611503565b005b61035c6115fd565b604080516001600160a01b03909816885260029690960b602088015261ffff9485168787015292841660608701529216608085015260ff90911660a0840152151560c0830152519081900360e00190f35b610266600480360360a08110156103c357600080fd5b6001600160a01b03823516916020810135600290810b92604083013590910b916001600160801b036060820135169181019060a081016080820135600160201b81111561040f57600080fd5b82018360208201111561042157600080fd5b803590602001918460018302840111600160201b8311171561044257600080fd5b50909250905061164d565b610455611909565b60408051918252519081900360200190f35b6103526004803603608081101561047d57600080fd5b6001600160a01b038235169160208101359160408201359190810190608081016060820135600160201b8111156104b357600080fd5b8201836020820111156104c557600080fd5b803590602001918460018302840111600160201b831117156104e657600080fd5b50909250905061190f565b6102ab600480360360a081101561050757600080fd5b506001600160a01b03813516906020810135600290810b91604081013590910b906001600160801b0360608201358116916080013516611d6a565b61055f6004803603602081101561055857600080fd5b5035611f84565b604080516001600160801b0396871681526020810195909552848101939093529084166060840152909216608082015290519081900360a00190f35b610455600480360360208110156105b157600080fd5b503560010b611fc1565b6105c3611fd3565b6040805162ffffff9092168252519081900360200190f35b610287611fde565b610352600480360360408110156105f957600080fd5b5060ff81358116916020013516612002565b6102ab6004803603606081101561062157600080fd5b506001600160a01b03813516906001600160801b03602082013581169160400135166121e6565b6106b66004803603602081101561065e57600080fd5b810190602081018135600160201b81111561067857600080fd5b82018360208201111561068a57600080fd5b803590602001918460208302840111600160201b831117156106ab57600080fd5b5090925090506124b3565b604051808060200180602001838103835285818151815260200191508051906020019060200280838360005b838110156106fa5781810151838201526020016106e2565b50505050905001838103825284818151815260200191508051906020019060200280838360005b83811015610739578181015183820152602001610721565b5050505090500194505050505060405180910390f35b6102666004803603606081101561076557600080fd5b508035600290810b91602081013590910b90604001356001600160801b0316612540565b6107b36004803603604081101561079f57600080fd5b508035600290810b9160200135900b6126b7565b6040805160069490940b84526001600160a01b03909216602084015263ffffffff1682820152519081900360600190f35b6101b66128a8565b6107f46128cc565b6040805160029290920b8252519081900360200190f35b6101b66128f0565b6105c3612914565b610455612938565b6108436004803603602081101561083957600080fd5b503560020b61293e565b604080516001600160801b039099168952600f9790970b602089015287870195909552606087019390935260069190910b60808601526001600160a01b031660a085015263ffffffff1660c0840152151560e083015251908190036101000190f35b610352600480360360208110156108bb57600080fd5b50356001600160a01b03166129aa565b7f000000000000000000000000000000000000000000000000000000000000000081565b6000806108fa612b80565b85610931576040805162461bcd60e51b8152602060048201526002602482015261415360f01b604482015290519081900360640190fd5b6040805160e0810182526000546001600160a01b0381168252600160a01b8104600290810b810b900b602083015261ffff600160b81b8204811693830193909352600160c81b810483166060830152600160d81b8104909216608082015260ff600160e81b8304811660a0830152600160f01b909204909116151560c082018190526109ea576040805162461bcd60e51b81526020600482015260036024820152624c4f4b60e81b604482015290519081900360640190fd5b87610a355780600001516001600160a01b0316866001600160a01b0316118015610a30575073fffd8963efd1fc6a506488495d951d5263988d266001600160a01b038716105b610a67565b80600001516001600160a01b0316866001600160a01b0316108015610a6757506401000276a36001600160a01b038716115b610a9e576040805162461bcd60e51b815260206004820152600360248201526214d41360ea1b604482015290519081900360640190fd5b6000805460ff60f01b191681556040805160c08101909152808a610acd5760048460a0015160ff16901c610ae0565b60108460a0015160ff1681610ade57fe5b065b60ff1681526005546001600160801b03166020820152604001610b01612bb7565b63ffffffff168152602001600060060b815260200160006001600160a01b031681526020016000151581525090506000808913905060006040518060e001604052808b81526020016000815260200185600001516001600160a01b03168152602001856020015160020b81526020018c610b7d57600254610b81565b6001545b815260200160006001600160801b0316815260200184602001516001600160801b031681525090505b805115801590610bd05750886001600160a01b031681604001516001600160a01b031614155b15610fa157610bdd615b7b565b60408201516001600160a01b031681526060820151610c20906007907f00000000000000000000000000000000000000000000000000000000000000008f612bbc565b15156040830152600290810b810b60208301819052620d89e719910b1215610c5157620d89e7196020820152610c70565b6020810151620d89e860029190910b1315610c7057620d89e860208201525b610c7d8160200151612cfe565b6001600160a01b03166060820152610c9361302f565b6003805462ffffff191662ffffff929092169190911790556040820151610d15908d610cd7578b6001600160a01b031683606001516001600160a01b031611610cf1565b8b6001600160a01b031683606001516001600160a01b0316105b610cff578260600151610d01565b8b5b60c0850151855160035462ffffff1661309c565b60c085015260a084015260808301526001600160a01b031660408301528215610d7757610d4b8160c0015182608001510161328e565b825103825260a0810151610d6d90610d629061328e565b6020840151906132a4565b6020830152610db2565b610d848160a0015161328e565b825101825260c08101516080820151610dac91610da1910161328e565b6020840151906132c0565b60208301525b835160ff1615610df8576000846000015160ff168260c0015181610dd257fe5b60c0840180519290910491829003905260a0840180519091016001600160801b03169052505b60c08201516001600160801b031615610e3757610e2b8160c00151600160801b8460c001516001600160801b03166132d6565b60808301805190910190525b80606001516001600160a01b031682604001516001600160a01b03161415610f6057806040015115610f37578360a00151610ec157610e9f846040015160008760200151886040015188602001518a606001516009613386909695949392919063ffffffff16565b6001600160a01b03166080860152600690810b900b6060850152600160a08501525b6000610f0d82602001518e610ed857600154610ede565b84608001515b8f610eed578560800151610ef1565b6002545b608089015160608a015160408b01516006959493929190613518565b90508c15610f19576000035b610f278360c00151826135d2565b6001600160801b031660c0840152505b8b610f46578060200151610f4f565b60018160200151035b600290810b900b6060830152610f9b565b80600001516001600160a01b031682604001516001600160a01b031614610f9b57610f8e8260400151613688565b600290810b900b60608301525b50610baa565b836020015160020b816060015160020b1461106f57600080610fef86604001518660400151886020015188602001518a606001518b6080015160096139a3909695949392919063ffffffff16565b604085015160608601516000805461ffff60c81b1916600160c81b61ffff958616021761ffff60b81b1916600160b81b95909416949094029290921762ffffff60a01b1916600160a01b62ffffff60029490940b9390931692909202919091176001600160a01b0319166001600160a01b03909116179055506110949050565b6040810151600080546001600160a01b0319166001600160a01b039092169190911790555b8060c001516001600160801b031683602001516001600160801b0316146110da5760c0810151600580546001600160801b0319166001600160801b039092169190911790555b8a1561112a57608081015160015560a08101516001600160801b0316156111255760a0810151600480546001600160801b031981166001600160801b03918216909301169190911790555b611170565b608081015160025560a08101516001600160801b0316156111705760a0810151600480546001600160801b03808216600160801b92839004821690940116029190911790555b8115158b15151461118957602081015181518b03611196565b80600001518a0381602001515b90965094508a156112cf5760008512156111d8576111d87f00000000000000000000000000000000000000000000000000000000000000008d87600003613b3e565b60006111e2613c8c565b9050336001600160a01b031663fa461e3388888c8c6040518563ffffffff1660e01b815260040180858152602001848152602001806020018281038252848482818152602001925080828437600081840152601f19601f82011690508083019250505095505050505050600060405180830381600087803b15801561126657600080fd5b505af115801561127a573d6000803e3d6000fd5b50505050611286613c8c565b6112908289613dc5565b11156112c9576040805162461bcd60e51b815260206004820152600360248201526249494160e81b604482015290519081900360640190fd5b506113f9565b6000861215611306576113067f00000000000000000000000000000000000000000000000000000000000000008d88600003613b3e565b6000611310613dd5565b9050336001600160a01b031663fa461e3388888c8c6040518563ffffffff1660e01b815260040180858152602001848152602001806020018281038252848482818152602001925080828437600081840152601f19601f82011690508083019250505095505050505050600060405180830381600087803b15801561139457600080fd5b505af11580156113a8573d6000803e3d6000fd5b505050506113b4613dd5565b6113be8288613dc5565b11156113f7576040805162461bcd60e51b815260206004820152600360248201526249494160e81b604482015290519081900360640190fd5b505b60408082015160c083015160608085015184518b8152602081018b90526001600160a01b03948516818701526001600160801b039093169183019190915260020b60808201529151908e169133917fc42079f94a6350d7e6235f29174924f928cc2ac818eb64fed8004e115fbcca679181900360a00190a350506000805460ff60f01b1916600160f01b17905550919890975095505050505050565b6005546001600160801b031681565b6004546001600160801b0380821691600160801b90041682565b60098161ffff81106114cf57600080fd5b015463ffffffff81169150600160201b810460060b90600160581b81046001600160a01b031690600160f81b900460ff1684565b600054600160f01b900460ff16611547576040805162461bcd60e51b81526020600482015260036024820152624c4f4b60e81b604482015290519081900360640190fd5b6000805460ff60f01b1916905561155c612b80565b60008054600160d81b900461ffff169061157860098385613e6d565b6000805461ffff808416600160d81b810261ffff60d81b19909316929092179092559192508316146115e5576040805161ffff80851682528316602082015281517fac49e518f90a358f652e4400164f05a5d8f7e35e7747279bc3a93dbf584e125a929181900390910190a15b50506000805460ff60f01b1916600160f01b17905550565b6000546001600160a01b03811690600160a01b810460020b9061ffff600160b81b8204811691600160c81b8104821691600160d81b8204169060ff600160e81b8204811691600160f01b90041687565b600080548190600160f01b900460ff16611694576040805162461bcd60e51b81526020600482015260036024820152624c4f4b60e81b604482015290519081900360640190fd5b6000805460ff60f01b191690556001600160801b0385166116b457600080fd5b60008061170260405180608001604052808c6001600160a01b031681526020018b60020b81526020018a60020b81526020016116f88a6001600160801b0316613f10565b600f0b9052613f21565b9250925050819350809250600080600086111561172457611721613c8c565b91505b841561173557611732613dd5565b90505b336001600160a01b031663d348799787878b8b6040518563ffffffff1660e01b815260040180858152602001848152602001806020018281038252848482818152602001925080828437600081840152601f19601f82011690508083019250505095505050505050600060405180830381600087803b1580156117b757600080fd5b505af11580156117cb573d6000803e3d6000fd5b505050506000861115611822576117e0613c8c565b6117ea8388613dc5565b1115611822576040805162461bcd60e51b815260206004820152600260248201526104d360f41b604482015290519081900360640190fd5b841561187257611830613dd5565b61183a8287613dc5565b1115611872576040805162461bcd60e51b81526020600482015260026024820152614d3160f01b604482015290519081900360640190fd5b8960020b8b60020b8d6001600160a01b03167f7a53080ba414158be7ec69b987b5fb7d07dee101fe85488f0853ae16239d0bde338d8b8b60405180856001600160a01b03168152602001846001600160801b0316815260200183815260200182815260200194505050505060405180910390a450506000805460ff60f01b1916600160f01b17905550919890975095505050505050565b60025481565b600054600160f01b900460ff16611953576040805162461bcd60e51b81526020600482015260036024820152624c4f4b60e81b604482015290519081900360640190fd5b6000805460ff60f01b19169055611968612b80565b6005546001600160801b0316806119aa576040805162461bcd60e51b81526020600482015260016024820152601360fa1b604482015290519081900360640190fd5b60006119df867f000000000000000000000000000000000000000000000000000000000000000062ffffff16620f4240614161565b90506000611a16867f000000000000000000000000000000000000000000000000000000000000000062ffffff16620f4240614161565b90506000611a22613c8c565b90506000611a2e613dd5565b90508815611a6157611a617f00000000000000000000000000000000000000000000000000000000000000008b8b613b3e565b8715611a9257611a927f00000000000000000000000000000000000000000000000000000000000000008b8a613b3e565b336001600160a01b031663e9cbafb085858a8a6040518563ffffffff1660e01b815260040180858152602001848152602001806020018281038252848482818152602001925080828437600081840152601f19601f82011690508083019250505095505050505050600060405180830381600087803b158015611b1457600080fd5b505af1158015611b28573d6000803e3d6000fd5b505050506000611b36613c8c565b90506000611b42613dd5565b905081611b4f8588613dc5565b1115611b87576040805162461bcd60e51b8152602060048201526002602482015261046360f41b604482015290519081900360640190fd5b80611b928487613dc5565b1115611bca576040805162461bcd60e51b8152602060048201526002602482015261463160f01b604482015290519081900360640190fd5b8382038382038115611c595760008054600160e81b9004600f16908115611bfd578160ff168481611bf757fe5b04611c00565b60005b90506001600160801b03811615611c3357600480546001600160801b038082168401166001600160801b03199091161790555b611c4d818503600160801b8d6001600160801b03166132d6565b60018054909101905550505b8015611ce45760008054600160e81b900460041c600f16908115611c89578160ff168381611c8357fe5b04611c8c565b60005b90506001600160801b03811615611cbe57600480546001600160801b03600160801b8083048216850182160291161790555b611cd8818403600160801b8d6001600160801b03166132d6565b60028054909101905550505b8d6001600160a01b0316336001600160a01b03167fbdbdb71d7860376ba52b25a5028beea23581364a40522f6bcfb86bb1f2dca6338f8f86866040518085815260200184815260200183815260200182815260200194505050505060405180910390a350506000805460ff60f01b1916600160f01b179055505050505050505050505050565b600080548190600160f01b900460ff16611db1576040805162461bcd60e51b81526020600482015260036024820152624c4f4b60e81b604482015290519081900360640190fd5b6000805460ff60f01b19168155611dcb600833898961419b565b60038101549091506001600160801b0390811690861611611dec5784611dfb565b60038101546001600160801b03165b60038201549093506001600160801b03600160801b909104811690851611611e235783611e39565b6003810154600160801b90046001600160801b03165b91506001600160801b03831615611e9e576003810180546001600160801b031981166001600160801b03918216869003821617909155611e9e907f0000000000000000000000000000000000000000000000000000000000000000908a908616613b3e565b6001600160801b03821615611f04576003810180546001600160801b03600160801b808304821686900382160291811691909117909155611f04907f0000000000000000000000000000000000000000000000000000000000000000908a908516613b3e565b604080516001600160a01b038a1681526001600160801b0380861660208301528416818301529051600288810b92908a900b9133917f70935338e69775456a85ddef226c395fb668b63fa0115f5f20610b388e6ca9c0919081900360600190a4506000805460ff60f01b1916600160f01b17905590969095509350505050565b60086020526000908152604090208054600182015460028301546003909301546001600160801b0392831693919281811691600160801b90041685565b60076020526000908152604090205481565b60035462ffffff1681565b7f000000000000000000000000000000000000000000000000000000000000000081565b600054600160f01b900460ff16612046576040805162461bcd60e51b81526020600482015260036024820152624c4f4b60e81b604482015290519081900360640190fd5b6000805460ff60f01b1916905560408051638da5cb5b60e01b815290516001600160a01b037f00000000000000000000000000000000000000000000000000000000000000001691638da5cb5b916004808301926020929190829003018186803b1580156120b357600080fd5b505afa1580156120c7573d6000803e3d6000fd5b505050506040513d60208110156120dd57600080fd5b50516001600160a01b031633146120f357600080fd5b60ff82161580612116575060048260ff16101580156121165750600a8260ff1611155b8015612140575060ff81161580612140575060048160ff16101580156121405750600a8160ff1611155b61214957600080fd5b60008054610ff0600484901b16840160ff908116600160e81b90810260ff60e81b19841617909355919004167f973d8d92bb299f4af6ce49b52a8adb85ae46b9f214c4c4fc06ac77401237b1336010826040805160ff9390920683168252600f600486901c16602083015286831682820152918516606082015290519081900360800190a150506000805460ff60f01b1916600160f01b17905550565b600080548190600160f01b900460ff1661222d576040805162461bcd60e51b81526020600482015260036024820152624c4f4b60e81b604482015290519081900360640190fd5b6000805460ff60f01b1916905560408051638da5cb5b60e01b815290516001600160a01b037f00000000000000000000000000000000000000000000000000000000000000001691638da5cb5b916004808301926020929190829003018186803b15801561229a57600080fd5b505afa1580156122ae573d6000803e3d6000fd5b505050506040513d60208110156122c457600080fd5b50516001600160a01b031633146122da57600080fd5b6004546001600160801b03908116908516116122f65783612303565b6004546001600160801b03165b6004549092506001600160801b03600160801b909104811690841611612329578261233d565b600454600160801b90046001600160801b03165b90506001600160801b038216156123be576004546001600160801b038381169116141561236c57600019909101905b600480546001600160801b031981166001600160801b039182168590038216179091556123be907f00000000000000000000000000000000000000000000000000000000000000009087908516613b3e565b6001600160801b03811615612444576004546001600160801b03828116600160801b9092041614156123ef57600019015b600480546001600160801b03600160801b808304821685900382160291811691909117909155612444907f00000000000000000000000000000000000000000000000000000000000000009087908416613b3e565b604080516001600160801b0380851682528316602082015281516001600160a01b0388169233927f596b573906218d3411850b26a6b437d6c4522fdb43d2d2386263f86d50b8b151929081900390910190a36000805460ff60f01b1916600160f01b1790559094909350915050565b6060806124be612b80565b6125356124c9612bb7565b858580806020026020016040519081016040528093929190818152602001838360200280828437600092018290525054600554600996959450600160a01b820460020b935061ffff600160b81b8304811693506001600160801b0390911691600160c81b9004166141ff565b915091509250929050565b600080548190600160f01b900460ff16612587576040805162461bcd60e51b81526020600482015260036024820152624c4f4b60e81b604482015290519081900360640190fd5b6000805460ff60f01b1916815560408051608081018252338152600288810b602083015287900b91810191909152819081906125e090606081016125d36001600160801b038a16613f10565b600003600f0b9052613f21565b92509250925081600003945080600003935060008511806126015750600084115b15612640576003830180546001600160801b038082168089018216600160801b93849004831689019092169092029091176001600160801b0319161790555b604080516001600160801b0388168152602081018790528082018690529051600289810b92908b900b9133917f0c396cd989a39f4459b5fa1aed6a9a8dcdbc45908acfd67e028cd568da98982c919081900360600190a450506000805460ff60f01b1916600160f01b179055509094909350915050565b60008060006126c4612b80565b6126ce8585614359565b600285810b810b600090815260066020819052604080832088850b90940b8352822060038401549182900b93600160381b83046001600160a01b0316928492600160d81b820463ffffffff16928492909190600160f81b900460ff168061273457600080fd5b6003820154600681900b9850600160381b81046001600160a01b03169650600160d81b810463ffffffff169450600160f81b900460ff168061277557600080fd5b50506040805160e0810182526000546001600160a01b0381168252600160a01b8104600290810b810b810b6020840181905261ffff600160b81b8404811695850195909552600160c81b830485166060850152600160d81b8304909416608084015260ff600160e81b8304811660a0850152600160f01b909204909116151560c08301529093508e810b91900b1215905061281e575093909403965090039350900390506128a1565b8a60020b816020015160020b121561289257600061283a612bb7565b6020830151604084015160055460608601519394506000938493612870936009938893879392916001600160801b031690613386565b9a9003989098039b5050949096039290920396509091030392506128a1915050565b50949093039650039350900390505b9250925092565b7f000000000000000000000000000000000000000000000000000000000000000081565b7f000000000000000000000000000000000000000000000000000000000000000081565b7f000000000000000000000000000000000000000000000000000000000000000081565b7f000000000000000000000000000000000000000000000000000000000000000081565b60015481565b60066020819052600091825260409091208054600182015460028301546003909301546001600160801b03831694600160801b909304600f0b93919281900b90600160381b81046001600160a01b031690600160d81b810463ffffffff1690600160f81b900460ff1688565b6000546001600160a01b0316156129ed576040805162461bcd60e51b8152602060048201526002602482015261414960f01b604482015290519081900360640190fd5b60006129f882613688565b9050600080612a10612a08612bb7565b600990614422565b6040805160e0810182526001600160a01b038816808252600288810b6020808501829052600085870181905261ffff898116606088018190529089166080880181905260a08801839052600160c0909801979097528154600160f01b6001600160a01b0319909116871762ffffff60a01b1916600160a01b62ffffff9787900b97909716969096029590951763ffffffff60b81b1916600160c81b9091021761ffff60d81b1916600160d81b9096029590951761ffff60e81b191692909217909355835191825281019190915281519395509193507f98636036cb66a9c19a37435efc1e90142190214e8abeb821bdba3f2990dd4c9592918290030190a150505050565b60008082600281900b620d89e71981612b2957fe5b05029050600083600281900b620d89e881612b4057fe5b0502905060008460020b83830360020b81612b5757fe5b0560010190508062ffffff166001600160801b03801681612b7457fe5b0493505050505b919050565b306001600160a01b037f00000000000000000000000000000000000000000000000000000000000000001614612bb557600080fd5b565b425b90565b60008060008460020b8660020b81612bd057fe5b05905060008660020b128015612bf757508460020b8660020b81612bf057fe5b0760020b15155b15612c0157600019015b8315612c7657600080612c138361446e565b600182810b810b600090815260208d9052604090205460ff83169190911b80016000190190811680151597509294509092509085612c5857888360ff16860302612c6b565b88612c6282614480565b840360ff168603025b965050505050612cf4565b600080612c858360010161446e565b91509150600060018260ff166001901b031990506000818b60008660010b60010b8152602001908152602001600020541690508060001415955085612cd757888360ff0360ff16866001010102612ced565b8883612ce28361451a565b0360ff168660010101025b9650505050505b5094509492505050565b60008060008360020b12612d15578260020b612d1d565b8260020b6000035b9050620d89e8811115612d5b576040805162461bcd60e51b81526020600482015260016024820152601560fa1b604482015290519081900360640190fd5b600060018216612d6f57600160801b612d81565b6ffffcb933bd6fad37aa2d162d1a5940015b70ffffffffffffffffffffffffffffffffff1690506002821615612db5576ffff97272373d413259a46990580e213a0260801c5b6004821615612dd4576ffff2e50f5f656932ef12357cf3c7fdcc0260801c5b6008821615612df3576fffe5caca7e10e4e61c3624eaa0941cd00260801c5b6010821615612e12576fffcb9843d60f6159c9db58835c9266440260801c5b6020821615612e31576fff973b41fa98c081472e6896dfb254c00260801c5b6040821615612e50576fff2ea16466c96a3843ec78b326b528610260801c5b6080821615612e6f576ffe5dee046a99a2a811c461f1969c30530260801c5b610100821615612e8f576ffcbe86c7900a88aedcffc83b479aa3a40260801c5b610200821615612eaf576ff987a7253ac413176f2b074cf7815e540260801c5b610400821615612ecf576ff3392b0822b70005940c7a398e4b70f30260801c5b610800821615612eef576fe7159475a2c29b7443b29c7fa6e889d90260801c5b611000821615612f0f576fd097f3bdfd2022b8845ad8f792aa58250260801c5b612000821615612f2f576fa9f746462d870fdf8a65dc1f90e061e50260801c5b614000821615612f4f576f70d869a156d2a1b890bb3df62baf32f70260801c5b618000821615612f6f576f31be135f97d08fd981231505542fcfa60260801c5b62010000821615612f90576f09aa508b5b7a84e1c677de54f3e99bc90260801c5b62020000821615612fb0576e5d6af8dedb81196699c329225ee6040260801c5b62040000821615612fcf576d2216e584f5fa1ea926041bedfe980260801c5b62080000821615612fec576b048a170391f7dc42444e8fa20260801c5b60008460020b131561300757806000198161300357fe5b0490505b600160201b81061561301a57600161301d565b60005b60ff16602082901c0192505050919050565b600080548190613047906001600160a01b0316614604565b9050600061305361461f565b905060006130618383614793565b90506032811015613079576101f49350505050612bb9565b609681111561308f576127109350505050612bb9565b610bb89350505050612bb9565b60008080806001600160a01b03808916908a1610158187128015906131215760006130d58989620f42400362ffffff16620f42406132d6565b9050826130ee576130e98c8c8c60016147cf565b6130fb565b6130fb8b8d8c600161484a565b955085811061310c578a965061311b565b6131188c8b83866148f5565b96505b5061316b565b81613138576131338b8b8b600061484a565b613145565b6131458a8c8b60006147cf565b93508388600003106131595789955061316b565b6131688b8a8a60000385614941565b95505b6001600160a01b038a81169087161482156131ce5780801561318a5750815b6131a05761319b878d8c600161484a565b6131a2565b855b95508080156131af575081155b6131c5576131c0878d8c60006147cf565b6131c7565b845b9450613218565b8080156131d85750815b6131ee576131e98c888c60016147cf565b6131f0565b855b95508080156131fd575081155b6132135761320e8c888c600061484a565b613215565b845b94505b8115801561322857508860000385115b15613234578860000394505b81801561325357508a6001600160a01b0316876001600160a01b031614155b1561326257858903935061327f565b61327c868962ffffff168a620f42400362ffffff16614161565b93505b50505095509550955095915050565b6000600160ff1b82106132a057600080fd5b5090565b808203828113156000831215146132ba57600080fd5b92915050565b818101828112156000831215146132ba57600080fd5b600080806000198587098686029250828110908390030390508061330c576000841161330157600080fd5b50829004905061337f565b80841161331857600080fd5b6000848688096000868103871696879004966002600389028118808a02820302808a02820302808a02820302808a02820302808a02820302808a02909103029181900381900460010186841190950394909402919094039290920491909117919091029150505b9392505050565b60008063ffffffff871661342c576000898661ffff1661ffff81106133a757fe5b60408051608081018252919092015463ffffffff808216808452600160201b8304600690810b810b900b6020850152600160581b83046001600160a01b031694840194909452600160f81b90910460ff16151560608301529092508a161461341857613415818a898861498d565b90505b80602001518160400151925092505061350c565b8688036000806134418c8c858c8c8c8c614a30565b91509150816000015163ffffffff168363ffffffff16141561347357816020015182604001519450945050505061350c565b805163ffffffff8481169116141561349b57806020015181604001519450945050505061350c565b8151815160208085015190840151918390039286039163ffffffff80841692908516910360060b816134c957fe5b05028460200151018263ffffffff168263ffffffff1686604001518660400151036001600160a01b031602816134fb57fe5b048560400151019650965050505050505b97509795505050505050565b600295860b860b60009081526020979097526040909620600181018054909503909455938301805490920390915560038201805463ffffffff600160d81b6001600160a01b03600160381b808504821690960316909402600160381b600160d81b031990921691909117600681810b90960390950b66ffffffffffffff1666ffffffffffffff199095169490941782810485169095039093160263ffffffff60d81b1990931692909217905554600160801b9004600f0b90565b60008082600f0b121561363757826001600160801b03168260000384039150816001600160801b031610613632576040805162461bcd60e51b81526020600482015260026024820152614c5360f01b604482015290519081900360640190fd5b6132ba565b826001600160801b03168284019150816001600160801b031610156132ba576040805162461bcd60e51b81526020600482015260026024820152614c4160f01b604482015290519081900360640190fd5b60006401000276a36001600160a01b038316108015906136c4575073fffd8963efd1fc6a506488495d951d5263988d266001600160a01b038316105b6136f9576040805162461bcd60e51b81526020600482015260016024820152602960f91b604482015290519081900360640190fd5b640100000000600160c01b03602083901b166001600160801b03811160071b81811c67ffffffffffffffff811160061b90811c63ffffffff811160051b90811c61ffff811160041b90811c60ff8111600390811b91821c600f811160021b90811c918211600190811b92831c9790881196179094179092171790911717176080811061378d57607f810383901c9150613797565b80607f0383901b91505b908002607f81811c60ff83811c9190911c800280831c81831c1c800280841c81841c1c800280851c81851c1c800280861c81861c1c800280871c81871c1c800280881c81881c1c800280891c81891c1c8002808a1c818a1c1c8002808b1c818b1c1c8002808c1c818c1c1c8002808d1c818d1c1c8002808e1c9c81901c9c909c1c80029c8d901c9e9d607f198f0160401b60c09190911c678000000000000000161760c19b909b1c674000000000000000169a909a1760c29990991c672000000000000000169890981760c39790971c671000000000000000169690961760c49590951c670800000000000000169490941760c59390931c670400000000000000169290921760c69190911c670200000000000000161760c79190911c600160381b161760c89190911c6680000000000000161760c99190911c6640000000000000161760ca9190911c6620000000000000161760cb9190911c6610000000000000161760cc9190911c6608000000000000161760cd9190911c66040000000000001617693627a301d71055774c8581026f028f6481ab7f045a5af012a19d003aa9198101608090811d906fdb2df09e81959a81455e260799a0632f8301901d600281810b9083900b1461399457886001600160a01b031661397882612cfe565b6001600160a01b0316111561398d578161398f565b805b613996565b815b9998505050505050505050565b6000806000898961ffff1661ffff81106139b957fe5b60408051608081018252919092015463ffffffff808216808452600160201b8304600690810b810b900b6020850152600160581b83046001600160a01b031694840194909452600160f81b90910460ff161515606083015290925089161415613a28578885925092505061350c565b8461ffff168461ffff16118015613a4957506001850361ffff168961ffff16145b15613a5657839150613a5a565b8491505b8161ffff168960010161ffff1681613a6e57fe5b069250613a7d8189898961498d565b8a8461ffff1661ffff8110613a8e57fe5b825191018054602084015160408501516060909501511515600160f81b026001600160f81b036001600160a01b03909616600160581b027fff0000000000000000000000000000000000000000ffffffffffffffffffffff60069390930b66ffffffffffffff16600160201b026affffffffffffff000000001963ffffffff90971663ffffffff199095169490941795909516929092171692909217929092161790555097509795505050505050565b604080516001600160a01b038481166024830152604480830185905283518084039091018152606490920183526020820180516001600160e01b031663a9059cbb60e01b1781529251825160009485949389169392918291908083835b60208310613bba5780518252601f199092019160209182019101613b9b565b6001836020036101000a0380198251168184511680821785525050505050509050019150506000604051808303816000865af19150503d8060008114613c1c576040519150601f19603f3d011682016040523d82523d6000602084013e613c21565b606091505b5091509150818015613c4f575080511580613c4f5750808060200190516020811015613c4c57600080fd5b50515b613c85576040805162461bcd60e51b81526020600482015260026024820152612a2360f11b604482015290519081900360640190fd5b5050505050565b604080513060248083019190915282518083039091018152604490910182526020810180516001600160e01b03166370a0823160e01b17815291518151600093849384936001600160a01b037f00000000000000000000000000000000000000000000000000000000000000001693919290918291908083835b60208310613d255780518252601f199092019160209182019101613d06565b6001836020036101000a038019825116818451168082178552505050505050905001915050600060405180830381855afa9150503d8060008114613d85576040519150601f19603f3d011682016040523d82523d6000602084013e613d8a565b606091505b5091509150818015613d9e57506020815110155b613da757600080fd5b808060200190516020811015613dbc57600080fd5b50519250505090565b808201828110156132ba57600080fd5b604080513060248083019190915282518083039091018152604490910182526020810180516001600160e01b03166370a0823160e01b17815291518151600093849384936001600160a01b037f000000000000000000000000000000000000000000000000000000000000000016939192909182919080838360208310613d255780518252601f199092019160209182019101613d06565b6000808361ffff1611613eab576040805162461bcd60e51b81526020600482015260016024820152604960f81b604482015290519081900360640190fd5b8261ffff168261ffff1611613ec157508161337f565b825b8261ffff168161ffff161015613f07576001858261ffff1661ffff8110613ee657fe5b01805463ffffffff191663ffffffff92909216919091179055600101613ec3565b50909392505050565b80600f81900b8114612b7b57600080fd5b6000806000613f2e612b80565b613f4084602001518560400151614359565b6040805160e0810182526000546001600160a01b0381168252600160a01b8104600290810b810b900b602080840182905261ffff600160b81b8404811685870152600160c81b84048116606080870191909152600160d81b8504909116608086015260ff600160e81b8504811660a0870152600160f01b909404909316151560c085015288519089015194890151928901519394613fe49491939092909190614c2a565b93508460600151600f0b60001461415957846020015160020b816020015160020b12156140395761403261401b8660200151612cfe565b6140288760400151612cfe565b8760600151614ddf565b9250614159565b846040015160020b816020015160020b121561412f5760055460408201516001600160801b039091169061408b9061406f612bb7565b60208501516060860151608087015160099493929187916139a3565b6000805461ffff60c81b1916600160c81b61ffff938416021761ffff60b81b1916600160b81b9390921692909202179055815160408701516140db91906140d190612cfe565b8860600151614ddf565b93506140f96140ed8760200151612cfe565b83516060890151614e23565b92506141098187606001516135d2565b600580546001600160801b0319166001600160801b039290921691909117905550614159565b61415661413f8660200151612cfe565b61414c8760400151612cfe565b8760600151614e23565b91505b509193909250565b600061416e8484846132d6565b90506000828061417a57fe5b848609111561337f57600019811061419157600080fd5b6001019392505050565b6040805160609490941b6bffffffffffffffffffffffff1916602080860191909152600293840b60e890811b60348701529290930b90911b60378401528051808403601a018152603a90930181528251928201929092206000908152929052902090565b60608060008361ffff161161423f576040805162461bcd60e51b81526020600482015260016024820152604960f81b604482015290519081900360640190fd5b865167ffffffffffffffff8111801561425757600080fd5b50604051908082528060200260200182016040528015614281578160200160208202803683370190505b509150865167ffffffffffffffff8111801561429c57600080fd5b506040519080825280602002602001820160405280156142c6578160200160208202803683370190505b50905060005b875181101561434c576142f78a8a8a84815181106142e657fe5b60200260200101518a8a8a8a613386565b84838151811061430357fe5b6020026020010184848151811061431657fe5b60200260200101826001600160a01b03166001600160a01b03168152508260060b60060b815250505080806001019150506142cc565b5097509795505050505050565b8060020b8260020b12614399576040805162461bcd60e51b8152602060048201526003602482015262544c5560e81b604482015290519081900360640190fd5b620d89e719600283900b12156143dc576040805162461bcd60e51b8152602060048201526003602482015262544c4d60e81b604482015290519081900360640190fd5b620d89e8600282900b131561441e576040805162461bcd60e51b815260206004820152600360248201526254554d60e81b604482015290519081900360640190fd5b5050565b6040805160808101825263ffffffff9283168082526000602083018190529282019290925260016060909101819052835463ffffffff1916909117909116600160f81b17909155908190565b60020b600881901d9161010090910790565b600080821161448e57600080fd5b600160801b82106144a157608091821c91015b600160401b82106144b457604091821c91015b600160201b82106144c757602091821c91015b6201000082106144d957601091821c91015b61010082106144ea57600891821c91015b601082106144fa57600491821c91015b6004821061450a57600291821c91015b60028210612b7b57600101919050565b600080821161452857600080fd5b5060ff6001600160801b0382161561454357607f190161454b565b608082901c91505b67ffffffffffffffff82161561456457603f190161456c565b604082901c91505b63ffffffff82161561458157601f1901614589565b602082901c91505b61ffff82161561459c57600f19016145a4565b601082901c91505b60ff8216156145b657600719016145be565b600882901c91505b600f8216156145d057600319016145d8565b600482901c91505b60038216156145ea57600119016145f2565b600282901c91505b6001821615612b7b5760001901919050565b6001600160a01b03168002670de0b6b3a76400000260c01c90565b60008061462a612bb7565b600080549192506102571983019160099061ffff600160c81b82048116916001600160b81b909104821601168161465d57fe5b0661ffff1661ffff811061466d57fe5b60408051608081018252929091015463ffffffff81168352600160201b8104600690810b810b900b60208401526001600160a01b03600160581b8204169183019190915260ff600160f81b9091041615156060820181905290915061472257506040805160808101825260095463ffffffff81168252600160201b8104600690810b810b900b6020830152600160581b81046001600160a01b031692820192909252600160f81b90910460ff16151560608201525b61473183826000015184614e52565b1561477457600061474430610258614f13565b5060020b9050610258600682900b0561476881670de0b6b3a764000060008061527e565b95505050505050612bb9565b600054614789906001600160a01b0316614604565b9350505050612bb9565b6000816147a2575060006132ba565b60008284116147b3578383036147b7565b8284035b9050828161271002816147c657fe5b04949350505050565b6000836001600160a01b0316856001600160a01b031611156147ef579293925b8161481c57614817836001600160801b03168686036001600160a01b0316600160601b6132d6565b61483f565b61483f836001600160801b03168686036001600160a01b0316600160601b614161565b90505b949350505050565b6000836001600160a01b0316856001600160a01b0316111561486a579293925b600160601b600160e01b03606084901b166001600160a01b03868603811690871661489457600080fd5b836148c457866001600160a01b03166148b78383896001600160a01b03166132d6565b816148be57fe5b046148ea565b6148ea6148db8383896001600160a01b0316614161565b886001600160a01b031661536c565b979650505050505050565b600080856001600160a01b03161161490c57600080fd5b6000846001600160801b03161161492257600080fd5b81614934576148178585856001615377565b61483f8585856001615458565b600080856001600160a01b03161161495857600080fd5b6000846001600160801b03161161496e57600080fd5b81614980576148178585856000615458565b61483f8585856000615377565b614995615bb7565b600085600001518503905060405180608001604052808663ffffffff1681526020018263ffffffff168660020b0288602001510160060b81526020016000856001600160801b0316116149e95760016149eb565b845b6001600160801b031663ffffffff60801b608085901b1681614a0957fe5b048860400151016001600160a01b0316815260200160011515815250915050949350505050565b614a38615bb7565b614a40615bb7565b888561ffff1661ffff8110614a5157fe5b60408051608081018252919092015463ffffffff8116808352600160201b8204600690810b810b900b6020840152600160581b82046001600160a01b031693830193909352600160f81b900460ff16151560608201529250614ab590899089614e52565b15614aed578663ffffffff16826000015163ffffffff161415614ad75761350c565b81614ae48389898861498d565b9150915061350c565b888361ffff168660010161ffff1681614b0257fe5b0661ffff1661ffff8110614b1257fe5b60408051608081018252929091015463ffffffff81168352600160201b8104600690810b810b900b60208401526001600160a01b03600160581b8204169183019190915260ff600160f81b90910416151560608201819052909250614bc757604080516080810182528a5463ffffffff81168252600160201b8104600690810b810b900b6020830152600160581b81046001600160a01b031692820192909252600160f81b90910460ff161515606082015291505b614bd688836000015189614e52565b614c0d576040805162461bcd60e51b815260206004820152600360248201526213d31160ea1b604482015290519081900360640190fd5b614c1a898989888761553b565b9150915097509795505050505050565b6000614c39600887878761419b565b60015460025491925090600080600f87900b15614d7f576000614c5a612bb7565b6000805460055492935090918291614ca49160099186918591600160a01b810460020b9161ffff600160b81b83048116926001600160801b0390921691600160c81b900416613386565b9092509050614cde60068d8b8d8b8b87898b60007f00000000000000000000000000000000000000000000000000000000000000006156d9565b9450614d1560068c8b8d8b8b87898b60017f00000000000000000000000000000000000000000000000000000000000000006156d9565b93508415614d4957614d4960078d7f0000000000000000000000000000000000000000000000000000000000000000615892565b8315614d7b57614d7b60078c7f0000000000000000000000000000000000000000000000000000000000000000615892565b5050505b600080614d9160068c8c8b8a8a6158f8565b9092509050614da2878a84846159a4565b600089600f0b1215614dd0578315614dbf57614dbf60068c615b39565b8215614dd057614dd060068b615b39565b50505050505095945050505050565b60008082600f0b12614e0557614e00614dfb858585600161484a565b61328e565b614842565b614e18614dfb858585600003600061484a565b600003949350505050565b60008082600f0b12614e3f57614e00614dfb85858560016147cf565b614e18614dfb85858560000360006147cf565b60008363ffffffff168363ffffffff1611158015614e7c57508363ffffffff168263ffffffff1611155b15614e98578163ffffffff168363ffffffff161115905061337f565b60008463ffffffff168463ffffffff1611614ebf578363ffffffff16600160201b01614ec7565b8363ffffffff165b64ffffffffff16905060008563ffffffff168463ffffffff1611614ef7578363ffffffff16600160201b01614eff565b8363ffffffff165b64ffffffffff169091111595945050505050565b60008063ffffffff8316614f53576040805162461bcd60e51b8152602060048201526002602482015261042560f41b604482015290519081900360640190fd5b6040805160028082526060820183526000926020830190803683370190505090508381600081518110614f8257fe5b602002602001019063ffffffff16908163ffffffff1681525050600081600181518110614fab57fe5b63ffffffff90921660209283029190910182015260405163883bdbfd60e01b81526004810182815283516024830152835160009384936001600160a01b038b169363883bdbfd9388939192839260449091019185820191028083838b5b83811015615020578181015183820152602001615008565b505050509050019250505060006040518083038186803b15801561504357600080fd5b505afa158015615057573d6000803e3d6000fd5b505050506040513d6000823e601f3d908101601f19168201604090815281101561508057600080fd5b8101908080516040519392919084600160201b82111561509f57600080fd5b9083019060208201858111156150b457600080fd5b82518660208202830111600160201b821117156150d057600080fd5b82525081516020918201928201910280838360005b838110156150fd5781810151838201526020016150e5565b5050505090500160405260200180516040519392919084600160201b82111561512557600080fd5b90830190602082018581111561513a57600080fd5b82518660208202830111600160201b8211171561515657600080fd5b82525081516020918201928201910280838360005b8381101561518357818101518382015260200161516b565b50505050905001604052505050915091506000826000815181106151a357fe5b6020026020010151836001815181106151b857fe5b60200260200101510390506000826000815181106151d257fe5b6020026020010151836001815181106151e757fe5b60200260200101510390508763ffffffff168260060b8161520457fe5b05965060008260060b12801561522e57508763ffffffff168260060b8161522757fe5b0760060b15155b1561523b57600019909601955b63ffffffff88166001600160a01b0302640100000000600160c01b03602083901b166001600160c01b0382168161526e57fe5b0496505050505050509250929050565b60008061528a86612cfe565b90506001600160801b036001600160a01b038216116152f9576001600160a01b03808216800290848116908616106152d9576152d4600160c01b876001600160801b0316836132d6565b6152f1565b6152f181876001600160801b0316600160c01b6132d6565b925050615363565b60006153136001600160a01b03831680600160401b6132d6565b9050836001600160a01b0316856001600160a01b03161061534b57615346600160801b876001600160801b0316836132d6565b6148ea565b6148ea81876001600160801b0316600160801b6132d6565b50949350505050565b808204910615150190565b600081156153ea5760006001600160a01b038411156153ad576153a884600160601b876001600160801b03166132d6565b6153c5565b6001600160801b038516606085901b816153c357fe5b045b90506153e26153dd6001600160a01b03881683613dc5565b615b65565b915050614842565b60006001600160a01b038411156154185761541384600160601b876001600160801b0316614161565b61542f565b61542f606085901b6001600160801b03871661536c565b905080866001600160a01b03161161544657600080fd5b6001600160a01b038616039050614842565b600082615466575083614842565b600160601b600160e01b03606085901b1682156154f4576001600160a01b0386168481029085828161549457fe5b0414156154c5578181018281106154c3576154b983896001600160a01b031683614161565b9350505050614842565b505b6154eb826154e6878a6001600160a01b031686816154df57fe5b0490613dc5565b61536c565b92505050614842565b6001600160a01b0386168481029085828161550b57fe5b0414801561551857508082115b61552157600080fd5b8082036154b96153dd846001600160a01b038b1684614161565b615543615bb7565b61554b615bb7565b60008361ffff168560010161ffff168161556157fe5b0661ffff169050600060018561ffff16830103905060005b506002818301048961ffff8716828161558e57fe5b0661ffff811061559a57fe5b60408051608081018252929091015463ffffffff81168352600160201b8104600690810b810b900b60208401526001600160a01b03600160581b8204169183019190915260ff600160f81b9091041615156060820181905290955061560457806001019250615579565b898661ffff16826001018161561557fe5b0661ffff811061562157fe5b60408051608081018252929091015463ffffffff81168352600160201b8104600690810b810b900b60208401526001600160a01b03600160581b8204169183019190915260ff600160f81b9091041615156060820152855190945060009061568b908b908b614e52565b90508080156156a457506156a48a8a8760000151614e52565b156156af57506156cc565b806156bf576001820392506156c6565b8160010193505b50615579565b5050509550959350505050565b60028a810b900b600090815260208c90526040812080546001600160801b031682615704828d6135d2565b9050846001600160801b0316816001600160801b03161115615752576040805162461bcd60e51b81526020600482015260026024820152614c4f60f01b604482015290519081900360640190fd5b6001600160801b0382811615908216158114159450156157f7578c60020b8e60020b136157df57600183018b9055600283018a9055600383018054600160381b600160d81b031916600160381b6001600160a01b038c16021766ffffffffffffff191666ffffffffffffff60068b900b161763ffffffff60d81b1916600160d81b63ffffffff8a16021790555b6003830180546001600160f81b0316600160f81b1790555b82546001600160801b0319166001600160801b0382161783558561584057825461583b9061583690600160801b9004600f90810b810b908f900b6132c0565b613f10565b615861565b82546158619061583690600160801b9004600f90810b810b908f900b6132a4565b8354600f9190910b6001600160801b03908116600160801b0291161790925550909c9b505050505050505050505050565b8060020b8260020b816158a157fe5b0760020b156158af57600080fd5b6000806158ca8360020b8560020b816158c457fe5b0561446e565b600191820b820b60009081526020979097526040909620805460ff9097169190911b90951890945550505050565b600285810b80820b60009081526020899052604080822088850b850b83529082209193849391929184918291908a900b1261593e57505060018201546002830154615951565b8360010154880391508360020154870390505b6000808b60020b8b60020b121561597357505060018301546002840154615986565b84600101548a0391508460020154890390505b92909803979097039b96909503949094039850939650505050505050565b6040805160a08101825285546001600160801b0390811682526001870154602083015260028701549282019290925260038601548083166060830152600160801b900490911660808201526000600f85900b615a435781516001600160801b0316615a3b576040805162461bcd60e51b815260206004820152600260248201526104e560f41b604482015290519081900360640190fd5b508051615a52565b8151615a4f90866135d2565b90505b6000615a768360200151860384600001516001600160801b0316600160801b6132d6565b90506000615a9c8460400151860385600001516001600160801b0316600160801b6132d6565b905086600f0b600014615ac35787546001600160801b0319166001600160801b0384161788555b60018801869055600288018590556001600160801b038216151580615af157506000816001600160801b0316115b15615b2f576003880180546001600160801b031981166001600160801b039182168501821617808216600160801b9182900483168501909216021790555b5050505050505050565b600290810b810b6000908152602092909252604082208281556001810183905590810182905560030155565b806001600160a01b0381168114612b7b57600080fd5b6040805160e081018252600080825260208201819052918101829052606081018290526080810182905260a0810182905260c081019190915290565b6040805160808101825260008082526020820181905291810182905260608101919091529056fea2646970667358221220354cf0834a700b16e8ee766196c09290c9b830b9b0715869024fb92d80ec7a2b64736f6c63430007060033","linkReferences":{}},"methodIdentifiers":{"burn(int24,int24,uint128)":"a34123a7","collect(address,int24,int24,uint128,uint128)":"4f1eb3d8","collectProtocol(address,uint128,uint128)":"85b66729","currentDynamicFee()":"56ccede7","factory()":"c45a0155","fee()":"ddca3f43","feeGrowthGlobal0X128()":"f3058399","feeGrowthGlobal1X128()":"46141319","flash(address,uint256,uint256,bytes)":"490e6cbc","increaseObservationCardinalityNext(uint16)":"32148f67","initialize(uint160)":"f637731d","liquidity()":"1a686502","maxLiquidityPerTick()":"70cf754a","mint(address,int24,int24,uint128,bytes)":"3c8a7d8d","observations(uint256)":"252c09d7","observe(uint32[])":"883bdbfd","positions(bytes32)":"514ea4bf","protocolFees()":"1ad8b03b","setFeeProtocol(uint8,uint8)":"8206a4d1","slot0()":"3850c7bd","snapshotCumulativesInside(int24,int24)":"a38807f2","swap(address,bool,int256,uint160,bytes)":"128acb08","tickBitmap(int16)":"5339c296","tickSpacing()":"d0c93a7c","ticks(int24)":"f30dba93","token0()":"0dfe1681","token1()":"d21220a7"},"id":46}