{"abi":[{"type":"constructor","inputs":[],"stateMutability":"nonpayable"},{"type":"function","name":"burn","inputs":[{"name":"tickLower","type":"int24","internalType":"int24"},{"name":"tickUpper","type":"int24","internalType":"int24"},{"name":"amount","type":"uint128","internalType":"uint128"}],"outputs":[{"name":"amount0","type":"uint256","internalType":"uint256"},{"name":"amount1","type":"uint256","internalType":"uint256"}],"stateMutability":"nonpayable"},{"type":"function","name":"collect","inputs":[{"name":"recipient","type":"address","internalType":"address"},{"name":"tickLower","type":"int24","internalType":"int24"},{"name":"tickUpper","type":"int24","internalType":"int24"},{"name":"amount0Requested","type":"uint128","internalType":"uint128"},{"name":"amount1Requested","type":"uint128","internalType":"uint128"}],"outputs":[{"name":"amount0","type":"uint128","internalType":"uint128"},{"name":"amount1","type":"uint128","internalType":"uint128"}],"stateMutability":"nonpayable"},{"type":"function","name":"collectProtocol","inputs":[{"name":"recipient","type":"address","internalType":"address"},{"name":"amount0Requested","type":"uint128","internalType":"uint128"},{"name":"amount1Requested","type":"uint128","internalType":"uint128"}],"outputs":[{"name":"amount0","type":"uint128","internalType":"uint128"},{"name":"amount1","type":"uint128","internalType":"uint128"}],"stateMutability":"nonpayable"},{"type":"function","name":"currentDynamicFee","inputs":[],"outputs":[{"name":"","type":"uint24","internalType":"uint24"}],"stateMutability":"view"},{"type":"function","name":"factory","inputs":[],"outputs":[{"name":"","type":"address","internalType":"address"}],"stateMutability":"view"},{"type":"function","name":"fee","inputs":[],"outputs":[{"name":"","type":"uint24","internalType":"uint24"}],"stateMutability":"view"},{"type":"function","name":"feeGrowthGlobal0X128","inputs":[],"outputs":[{"name":"","type":"uint256","internalType":"uint256"}],"stateMutability":"view"},{"type":"function","name":"feeGrowthGlobal1X128","inputs":[],"outputs":[{"name":"","type":"uint256","internalType":"uint256"}],"stateMutability":"view"},{"type":"function","name":"flash","inputs":[{"name":"recipient","type":"address","internalType":"address"},{"name":"amount0","type":"uint256","internalType":"uint256"},{"name":"amount1","type":"uint256","internalType":"uint256"},{"name":"data","type":"bytes","internalType":"bytes"}],"outputs":[],"stateMutability":"nonpayable"},{"type":"function","name":"getPriceDifferencePercentage","inputs":[{"name":"currentPrice","type":"uint256","internalType":"uint256"},{"name":"twapPrice","type":"uint256","internalType":"uint256"}],"outputs":[{"name":"","type":"uint256","internalType":"uint256"}],"stateMutability":"pure"},{"type":"function","name":"getTWAP","inputs":[],"outputs":[{"name":"","type":"uint256","internalType":"uint256"}],"stateMutability":"view"},{"type":"function","name":"increaseObservationCardinalityNext","inputs":[{"name":"observationCardinalityNext","type":"uint16","internalType":"uint16"}],"outputs":[],"stateMutability":"nonpayable"},{"type":"function","name":"initialize","inputs":[{"name":"sqrtPriceX96","type":"uint160","internalType":"uint160"}],"outputs":[],"stateMutability":"nonpayable"},{"type":"function","name":"liquidity","inputs":[],"outputs":[{"name":"","type":"uint128","internalType":"uint128"}],"stateMutability":"view"},{"type":"function","name":"maxLiquidityPerTick","inputs":[],"outputs":[{"name":"","type":"uint128","internalType":"uint128"}],"stateMutability":"view"},{"type":"function","name":"mint","inputs":[{"name":"recipient","type":"address","internalType":"address"},{"name":"tickLower","type":"int24","internalType":"int24"},{"name":"tickUpper","type":"int24","internalType":"int24"},{"name":"amount","type":"uint128","internalType":"uint128"},{"name":"data","type":"bytes","internalType":"bytes"}],"outputs":[{"name":"amount0","type":"uint256","internalType":"uint256"},{"name":"amount1","type":"uint256","internalType":"uint256"}],"stateMutability":"nonpayable"},{"type":"function","name":"observations","inputs":[{"name":"","type":"uint256","internalType":"uint256"}],"outputs":[{"name":"blockTimestamp","type":"uint32","internalType":"uint32"},{"name":"tickCumulative","type":"int56","internalType":"int56"},{"name":"secondsPerLiquidityCumulativeX128","type":"uint160","internalType":"uint160"},{"name":"initialized","type":"bool","internalType":"bool"}],"stateMutability":"view"},{"type":"function","name":"observe","inputs":[{"name":"secondsAgos","type":"uint32[]","internalType":"uint32[]"}],"outputs":[{"name":"tickCumulatives","type":"int56[]","internalType":"int56[]"},{"name":"secondsPerLiquidityCumulativeX128s","type":"uint160[]","internalType":"uint160[]"}],"stateMutability":"view"},{"type":"function","name":"positions","inputs":[{"name":"","type":"bytes32","internalType":"bytes32"}],"outputs":[{"name":"liquidity","type":"uint128","internalType":"uint128"},{"name":"feeGrowthInside0LastX128","type":"uint256","internalType":"uint256"},{"name":"feeGrowthInside1LastX128","type":"uint256","internalType":"uint256"},{"name":"tokensOwed0","type":"uint128","internalType":"uint128"},{"name":"tokensOwed1","type":"uint128","internalType":"uint128"}],"stateMutability":"view"},{"type":"function","name":"protocolFees","inputs":[],"outputs":[{"name":"token0","type":"uint128","internalType":"uint128"},{"name":"token1","type":"uint128","internalType":"uint128"}],"stateMutability":"view"},{"type":"function","name":"setFeeProtocol","inputs":[{"name":"feeProtocol0","type":"uint8","internalType":"uint8"},{"name":"feeProtocol1","type":"uint8","internalType":"uint8"}],"outputs":[],"stateMutability":"nonpayable"},{"type":"function","name":"slot0","inputs":[],"outputs":[{"name":"sqrtPriceX96","type":"uint160","internalType":"uint160"},{"name":"tick","type":"int24","internalType":"int24"},{"name":"observationIndex","type":"uint16","internalType":"uint16"},{"name":"observationCardinality","type":"uint16","internalType":"uint16"},{"name":"observationCardinalityNext","type":"uint16","internalType":"uint16"},{"name":"feeProtocol","type":"uint8","internalType":"uint8"},{"name":"unlocked","type":"bool","internalType":"bool"}],"stateMutability":"view"},{"type":"function","name":"snapshotCumulativesInside","inputs":[{"name":"tickLower","type":"int24","internalType":"int24"},{"name":"tickUpper","type":"int24","internalType":"int24"}],"outputs":[{"name":"tickCumulativeInside","type":"int56","internalType":"int56"},{"name":"secondsPerLiquidityInsideX128","type":"uint160","internalType":"uint160"},{"name":"secondsInside","type":"uint32","internalType":"uint32"}],"stateMutability":"view"},{"type":"function","name":"swap","inputs":[{"name":"recipient","type":"address","internalType":"address"},{"name":"zeroForOne","type":"bool","internalType":"bool"},{"name":"amountSpecified","type":"int256","internalType":"int256"},{"name":"sqrtPriceLimitX96","type":"uint160","internalType":"uint160"},{"name":"data","type":"bytes","internalType":"bytes"}],"outputs":[{"name":"amount0","type":"int256","internalType":"int256"},{"name":"amount1","type":"int256","internalType":"int256"}],"stateMutability":"nonpayable"},{"type":"function","name":"tickBitmap","inputs":[{"name":"","type":"int16","internalType":"int16"}],"outputs":[{"name":"","type":"uint256","internalType":"uint256"}],"stateMutability":"view"},{"type":"function","name":"tickSpacing","inputs":[],"outputs":[{"name":"","type":"int24","internalType":"int24"}],"stateMutability":"view"},{"type":"function","name":"ticks","inputs":[{"name":"","type":"int24","internalType":"int24"}],"outputs":[{"name":"liquidityGross","type":"uint128","internalType":"uint128"},{"name":"liquidityNet","type":"int128","internalType":"int128"},{"name":"feeGrowthOutside0X128","type":"uint256","internalType":"uint256"},{"name":"feeGrowthOutside1X128","type":"uint256","internalType":"uint256"},{"name":"tickCumulativeOutside","type":"int56","internalType":"int56"},{"name":"secondsPerLiquidityOutsideX128","type":"uint160","internalType":"uint160"},{"name":"secondsOutside","type":"uint32","internalType":"uint32"},{"name":"initialized","type":"bool","internalType":"bool"}],"stateMutability":"view"},{"type":"function","name":"token0","inputs":[],"outputs":[{"name":"","type":"address","internalType":"address"}],"stateMutability":"view"},{"type":"function","name":"token1","inputs":[],"outputs":[{"name":"","type":"address","internalType":"address"}],"stateMutability":"view"},{"type":"event","name":"Burn","inputs":[{"name":"owner","type":"address","indexed":true,"internalType":"address"},{"name":"tickLower","type":"int24","indexed":true,"internalType":"int24"},{"name":"tickUpper","type":"int24","indexed":true,"internalType":"int24"},{"name":"amount","type":"uint128","indexed":false,"internalType":"uint128"},{"name":"amount0","type":"uint256","indexed":false,"internalType":"uint256"},{"name":"amount1","type":"uint256","indexed":false,"internalType":"uint256"}],"anonymous":false},{"type":"event","name":"Collect","inputs":[{"name":"owner","type":"address","indexed":true,"internalType":"address"},{"name":"recipient","type":"address","indexed":false,"internalType":"address"},{"name":"tickLower","type":"int24","indexed":true,"internalType":"int24"},{"name":"tickUpper","type":"int24","indexed":true,"internalType":"int24"},{"name":"amount0","type":"uint128","indexed":false,"internalType":"uint128"},{"name":"amount1","type":"uint128","indexed":false,"internalType":"uint128"}],"anonymous":false},{"type":"event","name":"CollectProtocol","inputs":[{"name":"sender","type":"address","indexed":true,"internalType":"address"},{"name":"recipient","type":"address","indexed":true,"internalType":"address"},{"name":"amount0","type":"uint128","indexed":false,"internalType":"uint128"},{"name":"amount1","type":"uint128","indexed":false,"internalType":"uint128"}],"anonymous":false},{"type":"event","name":"Flash","inputs":[{"name":"sender","type":"address","indexed":true,"internalType":"address"},{"name":"recipient","type":"address","indexed":true,"internalType":"address"},{"name":"amount0","type":"uint256","indexed":false,"internalType":"uint256"},{"name":"amount1","type":"uint256","indexed":false,"internalType":"uint256"},{"name":"paid0","type":"uint256","indexed":false,"internalType":"uint256"},{"name":"paid1","type":"uint256","indexed":false,"internalType":"uint256"}],"anonymous":false},{"type":"event","name":"IncreaseObservationCardinalityNext","inputs":[{"name":"observationCardinalityNextOld","type":"uint16","indexed":false,"internalType":"uint16"},{"name":"observationCardinalityNextNew","type":"uint16","indexed":false,"internalType":"uint16"}],"anonymous":false},{"type":"event","name":"Initialize","inputs":[{"name":"sqrtPriceX96","type":"uint160","indexed":false,"internalType":"uint160"},{"name":"tick","type":"int24","indexed":false,"internalType":"int24"}],"anonymous":false},{"type":"event","name":"Mint","inputs":[{"name":"sender","type":"address","indexed":false,"internalType":"address"},{"name":"owner","type":"address","indexed":true,"internalType":"address"},{"name":"tickLower","type":"int24","indexed":true,"internalType":"int24"},{"name":"tickUpper","type":"int24","indexed":true,"internalType":"int24"},{"name":"amount","type":"uint128","indexed":false,"internalType":"uint128"},{"name":"amount0","type":"uint256","indexed":false,"internalType":"uint256"},{"name":"amount1","type":"uint256","indexed":false,"internalType":"uint256"}],"anonymous":false},{"type":"event","name":"SetFeeProtocol","inputs":[{"name":"feeProtocol0Old","type":"uint8","indexed":false,"internalType":"uint8"},{"name":"feeProtocol1Old","type":"uint8","indexed":false,"internalType":"uint8"},{"name":"feeProtocol0New","type":"uint8","indexed":false,"internalType":"uint8"},{"name":"feeProtocol1New","type":"uint8","indexed":false,"internalType":"uint8"}],"anonymous":false},{"type":"event","name":"Swap","inputs":[{"name":"sender","type":"address","indexed":true,"internalType":"address"},{"name":"recipient","type":"address","indexed":true,"internalType":"address"},{"name":"amount0","type":"int256","indexed":false,"internalType":"int256"},{"name":"amount1","type":"int256","indexed":false,"internalType":"int256"},{"name":"sqrtPriceX96","type":"uint160","indexed":false,"internalType":"uint160"},{"name":"liquidity","type":"uint128","indexed":false,"internalType":"uint128"},{"name":"tick","type":"int24","indexed":false,"internalType":"int24"}],"anonymous":false}],"bytecode":{"object":"0x6101606040523480156200001257600080fd5b503060601b60805260408051630890357360e41b81529051600091339163890357309160048082019260a092909190829003018186803b1580156200005657600080fd5b505afa1580156200006b573d6000803e3d6000fd5b505050506040513d60a08110156200008257600080fd5b508051602080830151604084015160608086015160809096015160e896871b6001600160e81b0319166101005291811b6001600160601b031990811660e05292811b831660c0529390931b1660a052600282810b900b90921b610120529150620000f79082906200010f811b62002d1617901c565b60801b6001600160801b03191661014052506200017d565b60008082600281900b620d89e719816200012557fe5b05029050600083600281900b620d89e8816200013d57fe5b0502905060008460020b83830360020b816200015557fe5b0560010190508062ffffff166001600160801b038016816200017357fe5b0495945050505050565b60805160601c60a05160601c60c05160601c60e05160601c6101005160e81c6101205160e81c6101405160801c615d1f62000245600039806121e252806152df5280615316525080610dbf5280612ad0528061534a528061537c525080611b765280611bad5280612b185250806113735280611c30528061209f528061261d5280612af4528061461e525080610a9152806114a15280611bff5280612039528061259752806144d552508061226f52806124565280612aac5250806132cc5250615d1f6000f3fe608060405234801561001057600080fd5b50600436106101cf5760003560e01c806355abbe8f11610104578063a38807f2116100a2578063ddca3f4311610071578063ddca3f4314610864578063f30583991461086c578063f30dba9314610874578063f637731d146108f6576101cf565b8063a38807f2146107da578063c45a015514610835578063d0c93a7c1461083d578063d21220a71461085c576101cf565b80638206a4d1116100de5780638206a4d11461063457806385b667291461065c578063883bdbfd14610699578063a34123a7146107a0576101cf565b806355abbe8f146105e957806356ccede71461060c57806370cf754a1461062c576101cf565b80633850c7bd11610171578063490e6cbc1161014b578063490e6cbc146104955780634f1eb3d81461051f578063514ea4bf146105705780635339c296146105c9576101cf565b80633850c7bd146103945780633c8a7d8d146103ed578063461413191461048d576101cf565b80631a686502116101ad5780631a686502146102bf5780631ad8b03b146102e3578063252c09d71461031a57806332148f6714610371576101cf565b806305ecd003146101d45780630dfe1681146101ee578063128acb0814610212575b600080fd5b6101dc61091c565b60408051918252519081900360200190f35b6101f6610a8f565b604080516001600160a01b039092168252519081900360200190f35b6102a6600480360360a081101561022857600080fd5b6001600160a01b0382358116926020810135151592604082013592606083013516919081019060a081016080820135600160201b81111561026857600080fd5b82018360208201111561027a57600080fd5b803590602001918460018302840111600160201b8311171561029b57600080fd5b509092509050610ab3565b6040805192835260208301919091528051918290030190f35b6102c7611659565b604080516001600160801b039092168252519081900360200190f35b6102eb611668565b60405180836001600160801b03168152602001826001600160801b031681526020019250505060405180910390f35b6103376004803603602081101561033057600080fd5b5035611682565b6040805163ffffffff909516855260069390930b60208501526001600160a01b039091168383015215156060830152519081900360800190f35b6103926004803603602081101561038757600080fd5b503561ffff166116c7565b005b61039c6117c1565b604080516001600160a01b03909816885260029690960b602088015261ffff9485168787015292841660608701529216608085015260ff90911660a0840152151560c0830152519081900360e00190f35b6102a6600480360360a081101561040357600080fd5b6001600160a01b03823516916020810135600290810b92604083013590910b916001600160801b036060820135169181019060a081016080820135600160201b81111561044f57600080fd5b82018360208201111561046157600080fd5b803590602001918460018302840111600160201b8311171561048257600080fd5b509092509050611811565b6101dc611acd565b610392600480360360808110156104ab57600080fd5b6001600160a01b038235169160208101359160408201359190810190608081016060820135600160201b8111156104e157600080fd5b8201836020820111156104f357600080fd5b803590602001918460018302840111600160201b8311171561051457600080fd5b509092509050611ad3565b6102eb600480360360a081101561053557600080fd5b506001600160a01b03813516906020810135600290810b91604081013590910b906001600160801b0360608201358116916080013516611f2e565b61058d6004803603602081101561058657600080fd5b5035612148565b604080516001600160801b0396871681526020810195909552848101939093529084166060840152909216608082015290519081900360a00190f35b6101dc600480360360208110156105df57600080fd5b503560010b612185565b6101dc600480360360408110156105ff57600080fd5b5080359060200135612197565b6106146121d5565b6040805162ffffff9092168252519081900360200190f35b6102c76121e0565b6103926004803603604081101561064a57600080fd5b5060ff81358116916020013516612204565b6102eb6004803603606081101561067257600080fd5b506001600160a01b03813516906001600160801b03602082013581169160400135166123e8565b610707600480360360208110156106af57600080fd5b810190602081018135600160201b8111156106c957600080fd5b8201836020820111156106db57600080fd5b803590602001918460208302840111600160201b831117156106fc57600080fd5b5090925090506126b5565b604051808060200180602001838103835285818151815260200191508051906020019060200280838360005b8381101561074b578181015183820152602001610733565b50505050905001838103825284818151815260200191508051906020019060200280838360005b8381101561078a578181015183820152602001610772565b5050505090500194505050505060405180910390f35b6102a6600480360360608110156107b657600080fd5b508035600290810b91602081013590910b90604001356001600160801b0316612742565b610804600480360360408110156107f057600080fd5b508035600290810b9160200135900b6128b9565b6040805160069490940b84526001600160a01b03909216602084015263ffffffff1682820152519081900360600190f35b6101f6612aaa565b610845612ace565b6040805160029290920b8252519081900360200190f35b6101f6612af2565b610614612b16565b6101dc612b3a565b6108946004803603602081101561088a57600080fd5b503560020b612b40565b604080516001600160801b039099168952600f9790970b602089015287870195909552606087019390935260069190910b60808601526001600160a01b031660a085015263ffffffff1660c0840152151560e083015251908190036101000190f35b6103926004803603602081101561090c57600080fd5b50356001600160a01b0316612bac565b600080610927612d82565b600080549192506102571983019160099061ffff600160c81b82048116916001600160b81b909104821601168161095a57fe5b0661ffff1661ffff811061096a57fe5b60408051608081018252929091015463ffffffff81168352600160201b8104600690810b810b900b60208401526001600160a01b03600160581b8204169183019190915260ff600160f81b90910416151560608201819052909150610a1f57506040805160808101825260095463ffffffff81168252600160201b8104600690810b810b900b6020830152600160581b81046001600160a01b031692820192909252600160f81b90910460ff16151560608201525b610a2e83826000015184612d86565b15610a71576000610a4130610258612e49565b5060020b9050610258600682900b05610a6581670de0b6b3a76400006000806131b4565b95505050505050610a8c565b600054610a86906001600160a01b03166132a6565b93505050505b90565b7f000000000000000000000000000000000000000000000000000000000000000081565b600080610abe6132c1565b85610af5576040805162461bcd60e51b8152602060048201526002602482015261415360f01b604482015290519081900360640190fd5b6040805160e0810182526000546001600160a01b0381168252600160a01b8104600290810b810b900b602083015261ffff600160b81b8204811693830193909352600160c81b810483166060830152600160d81b8104909216608082015260ff600160e81b8304811660a0830152600160f01b909204909116151560c08201819052610bae576040805162461bcd60e51b81526020600482015260036024820152624c4f4b60e81b604482015290519081900360640190fd5b87610bf95780600001516001600160a01b0316866001600160a01b0316118015610bf4575073fffd8963efd1fc6a506488495d951d5263988d266001600160a01b038716105b610c2b565b80600001516001600160a01b0316866001600160a01b0316108015610c2b57506401000276a36001600160a01b038716115b610c62576040805162461bcd60e51b815260206004820152600360248201526214d41360ea1b604482015290519081900360640190fd5b6000805460ff60f01b191681556040805160c08101909152808a610c915760048460a0015160ff16901c610ca4565b60108460a0015160ff1681610ca257fe5b065b60ff1681526005546001600160801b03166020820152604001610cc5612d82565b63ffffffff168152602001600060060b815260200160006001600160a01b031681526020016000151581525090506000808913905060006040518060e001604052808b81526020016000815260200185600001516001600160a01b03168152602001856020015160020b81526020018c610d4157600254610d45565b6001545b815260200160006001600160801b0316815260200184602001516001600160801b031681525090505b805115801590610d945750886001600160a01b031681604001516001600160a01b031614155b1561116557610da1615c86565b60408201516001600160a01b031681526060820151610de4906007907f00000000000000000000000000000000000000000000000000000000000000008f6132f8565b15156040830152600290810b810b60208301819052620d89e719910b1215610e1557620d89e7196020820152610e34565b6020810151620d89e860029190910b1315610e3457620d89e860208201525b610e41816020015161343a565b6001600160a01b03166060820152610e5761376b565b6003805462ffffff191662ffffff929092169190911790556040820151610ed9908d610e9b578b6001600160a01b031683606001516001600160a01b031611610eb5565b8b6001600160a01b031683606001516001600160a01b0316105b610ec3578260600151610ec5565b8b5b60c0850151855160035462ffffff1661389e565b60c085015260a084015260808301526001600160a01b031660408301528215610f3b57610f0f8160c00151826080015101613a90565b825103825260a0810151610f3190610f2690613a90565b602084015190613aa6565b6020830152610f76565b610f488160a00151613a90565b825101825260c08101516080820151610f7091610f659101613a90565b602084015190613abc565b60208301525b835160ff1615610fbc576000846000015160ff168260c0015181610f9657fe5b60c0840180519290910491829003905260a0840180519091016001600160801b03169052505b60c08201516001600160801b031615610ffb57610fef8160c00151600160801b8460c001516001600160801b0316613ad2565b60808301805190910190525b80606001516001600160a01b031682604001516001600160a01b03161415611124578060400151156110fb578360a0015161108557611063846040015160008760200151886040015188602001518a606001516009613b81909695949392919063ffffffff16565b6001600160a01b03166080860152600690810b900b6060850152600160a08501525b60006110d182602001518e61109c576001546110a2565b84608001515b8f6110b15785608001516110b5565b6002545b608089015160608a015160408b01516006959493929190613d13565b90508c156110dd576000035b6110eb8360c0015182613dcd565b6001600160801b031660c0840152505b8b61110a578060200151611113565b60018160200151035b600290810b900b606083015261115f565b80600001516001600160a01b031682604001516001600160a01b03161461115f576111528260400151613e83565b600290810b900b60608301525b50610d6e565b836020015160020b816060015160020b14611233576000806111b386604001518660400151886020015188602001518a606001518b60800151600961419e909695949392919063ffffffff16565b604085015160608601516000805461ffff60c81b1916600160c81b61ffff958616021761ffff60b81b1916600160b81b95909416949094029290921762ffffff60a01b1916600160a01b62ffffff60029490940b9390931692909202919091176001600160a01b0319166001600160a01b03909116179055506112589050565b6040810151600080546001600160a01b0319166001600160a01b039092169190911790555b8060c001516001600160801b031683602001516001600160801b03161461129e5760c0810151600580546001600160801b0319166001600160801b039092169190911790555b8a156112ee57608081015160015560a08101516001600160801b0316156112e95760a0810151600480546001600160801b031981166001600160801b03918216909301169190911790555b611334565b608081015160025560a08101516001600160801b0316156113345760a0810151600480546001600160801b03808216600160801b92839004821690940116029190911790555b8115158b15151461134d57602081015181518b0361135a565b80600001518a0381602001515b90965094508a1561149357600085121561139c5761139c7f00000000000000000000000000000000000000000000000000000000000000008d87600003614339565b60006113a6614487565b9050336001600160a01b031663fa461e3388888c8c6040518563ffffffff1660e01b815260040180858152602001848152602001806020018281038252848482818152602001925080828437600081840152601f19601f82011690508083019250505095505050505050600060405180830381600087803b15801561142a57600080fd5b505af115801561143e573d6000803e3d6000fd5b5050505061144a614487565b61145482896145c0565b111561148d576040805162461bcd60e51b815260206004820152600360248201526249494160e81b604482015290519081900360640190fd5b506115bd565b60008612156114ca576114ca7f00000000000000000000000000000000000000000000000000000000000000008d88600003614339565b60006114d46145d0565b9050336001600160a01b031663fa461e3388888c8c6040518563ffffffff1660e01b815260040180858152602001848152602001806020018281038252848482818152602001925080828437600081840152601f19601f82011690508083019250505095505050505050600060405180830381600087803b15801561155857600080fd5b505af115801561156c573d6000803e3d6000fd5b505050506115786145d0565b61158282886145c0565b11156115bb576040805162461bcd60e51b815260206004820152600360248201526249494160e81b604482015290519081900360640190fd5b505b60408082015160c083015160608085015184518b8152602081018b90526001600160a01b03948516818701526001600160801b039093169183019190915260020b60808201529151908e169133917fc42079f94a6350d7e6235f29174924f928cc2ac818eb64fed8004e115fbcca679181900360a00190a350506000805460ff60f01b1916600160f01b17905550919890975095505050505050565b6005546001600160801b031681565b6004546001600160801b0380821691600160801b90041682565b60098161ffff811061169357600080fd5b015463ffffffff81169150600160201b810460060b90600160581b81046001600160a01b031690600160f81b900460ff1684565b600054600160f01b900460ff1661170b576040805162461bcd60e51b81526020600482015260036024820152624c4f4b60e81b604482015290519081900360640190fd5b6000805460ff60f01b191690556117206132c1565b60008054600160d81b900461ffff169061173c60098385614668565b6000805461ffff808416600160d81b810261ffff60d81b19909316929092179092559192508316146117a9576040805161ffff80851682528316602082015281517fac49e518f90a358f652e4400164f05a5d8f7e35e7747279bc3a93dbf584e125a929181900390910190a15b50506000805460ff60f01b1916600160f01b17905550565b6000546001600160a01b03811690600160a01b810460020b9061ffff600160b81b8204811691600160c81b8104821691600160d81b8204169060ff600160e81b8204811691600160f01b90041687565b600080548190600160f01b900460ff16611858576040805162461bcd60e51b81526020600482015260036024820152624c4f4b60e81b604482015290519081900360640190fd5b6000805460ff60f01b191690556001600160801b03851661187857600080fd5b6000806118c660405180608001604052808c6001600160a01b031681526020018b60020b81526020018a60020b81526020016118bc8a6001600160801b031661470b565b600f0b905261471c565b925092505081935080925060008060008611156118e8576118e5614487565b91505b84156118f9576118f66145d0565b90505b336001600160a01b031663d348799787878b8b6040518563ffffffff1660e01b815260040180858152602001848152602001806020018281038252848482818152602001925080828437600081840152601f19601f82011690508083019250505095505050505050600060405180830381600087803b15801561197b57600080fd5b505af115801561198f573d6000803e3d6000fd5b5050505060008611156119e6576119a4614487565b6119ae83886145c0565b11156119e6576040805162461bcd60e51b815260206004820152600260248201526104d360f41b604482015290519081900360640190fd5b8415611a36576119f46145d0565b6119fe82876145c0565b1115611a36576040805162461bcd60e51b81526020600482015260026024820152614d3160f01b604482015290519081900360640190fd5b8960020b8b60020b8d6001600160a01b03167f7a53080ba414158be7ec69b987b5fb7d07dee101fe85488f0853ae16239d0bde338d8b8b60405180856001600160a01b03168152602001846001600160801b0316815260200183815260200182815260200194505050505060405180910390a450506000805460ff60f01b1916600160f01b17905550919890975095505050505050565b60025481565b600054600160f01b900460ff16611b17576040805162461bcd60e51b81526020600482015260036024820152624c4f4b60e81b604482015290519081900360640190fd5b6000805460ff60f01b19169055611b2c6132c1565b6005546001600160801b031680611b6e576040805162461bcd60e51b81526020600482015260016024820152601360fa1b604482015290519081900360640190fd5b6000611ba3867f000000000000000000000000000000000000000000000000000000000000000062ffffff16620f424061495c565b90506000611bda867f000000000000000000000000000000000000000000000000000000000000000062ffffff16620f424061495c565b90506000611be6614487565b90506000611bf26145d0565b90508815611c2557611c257f00000000000000000000000000000000000000000000000000000000000000008b8b614339565b8715611c5657611c567f00000000000000000000000000000000000000000000000000000000000000008b8a614339565b336001600160a01b031663e9cbafb085858a8a6040518563ffffffff1660e01b815260040180858152602001848152602001806020018281038252848482818152602001925080828437600081840152601f19601f82011690508083019250505095505050505050600060405180830381600087803b158015611cd857600080fd5b505af1158015611cec573d6000803e3d6000fd5b505050506000611cfa614487565b90506000611d066145d0565b905081611d1385886145c0565b1115611d4b576040805162461bcd60e51b8152602060048201526002602482015261046360f41b604482015290519081900360640190fd5b80611d5684876145c0565b1115611d8e576040805162461bcd60e51b8152602060048201526002602482015261463160f01b604482015290519081900360640190fd5b8382038382038115611e1d5760008054600160e81b9004600f16908115611dc1578160ff168481611dbb57fe5b04611dc4565b60005b90506001600160801b03811615611df757600480546001600160801b038082168401166001600160801b03199091161790555b611e11818503600160801b8d6001600160801b0316613ad2565b60018054909101905550505b8015611ea85760008054600160e81b900460041c600f16908115611e4d578160ff168381611e4757fe5b04611e50565b60005b90506001600160801b03811615611e8257600480546001600160801b03600160801b8083048216850182160291161790555b611e9c818403600160801b8d6001600160801b0316613ad2565b60028054909101905550505b8d6001600160a01b0316336001600160a01b03167fbdbdb71d7860376ba52b25a5028beea23581364a40522f6bcfb86bb1f2dca6338f8f86866040518085815260200184815260200183815260200182815260200194505050505060405180910390a350506000805460ff60f01b1916600160f01b179055505050505050505050505050565b600080548190600160f01b900460ff16611f75576040805162461bcd60e51b81526020600482015260036024820152624c4f4b60e81b604482015290519081900360640190fd5b6000805460ff60f01b19168155611f8f6008338989614996565b60038101549091506001600160801b0390811690861611611fb05784611fbf565b60038101546001600160801b03165b60038201549093506001600160801b03600160801b909104811690851611611fe75783611ffd565b6003810154600160801b90046001600160801b03165b91506001600160801b03831615612062576003810180546001600160801b031981166001600160801b03918216869003821617909155612062907f0000000000000000000000000000000000000000000000000000000000000000908a908616614339565b6001600160801b038216156120c8576003810180546001600160801b03600160801b8083048216869003821602918116919091179091556120c8907f0000000000000000000000000000000000000000000000000000000000000000908a908516614339565b604080516001600160a01b038a1681526001600160801b0380861660208301528416818301529051600288810b92908a900b9133917f70935338e69775456a85ddef226c395fb668b63fa0115f5f20610b388e6ca9c0919081900360600190a4506000805460ff60f01b1916600160f01b17905590969095509350505050565b60086020526000908152604090208054600182015460028301546003909301546001600160801b0392831693919281811691600160801b90041685565b60076020526000908152604090205481565b6000816121a6575060006121cf565b60008284116121b7578383036121bb565b8284035b9050828161271002816121ca57fe5b049150505b92915050565b60035462ffffff1681565b7f000000000000000000000000000000000000000000000000000000000000000081565b600054600160f01b900460ff16612248576040805162461bcd60e51b81526020600482015260036024820152624c4f4b60e81b604482015290519081900360640190fd5b6000805460ff60f01b1916905560408051638da5cb5b60e01b815290516001600160a01b037f00000000000000000000000000000000000000000000000000000000000000001691638da5cb5b916004808301926020929190829003018186803b1580156122b557600080fd5b505afa1580156122c9573d6000803e3d6000fd5b505050506040513d60208110156122df57600080fd5b50516001600160a01b031633146122f557600080fd5b60ff82161580612318575060048260ff16101580156123185750600a8260ff1611155b8015612342575060ff81161580612342575060048160ff16101580156123425750600a8160ff1611155b61234b57600080fd5b60008054610ff0600484901b16840160ff908116600160e81b90810260ff60e81b19841617909355919004167f973d8d92bb299f4af6ce49b52a8adb85ae46b9f214c4c4fc06ac77401237b1336010826040805160ff9390920683168252600f600486901c16602083015286831682820152918516606082015290519081900360800190a150506000805460ff60f01b1916600160f01b17905550565b600080548190600160f01b900460ff1661242f576040805162461bcd60e51b81526020600482015260036024820152624c4f4b60e81b604482015290519081900360640190fd5b6000805460ff60f01b1916905560408051638da5cb5b60e01b815290516001600160a01b037f00000000000000000000000000000000000000000000000000000000000000001691638da5cb5b916004808301926020929190829003018186803b15801561249c57600080fd5b505afa1580156124b0573d6000803e3d6000fd5b505050506040513d60208110156124c657600080fd5b50516001600160a01b031633146124dc57600080fd5b6004546001600160801b03908116908516116124f85783612505565b6004546001600160801b03165b6004549092506001600160801b03600160801b90910481169084161161252b578261253f565b600454600160801b90046001600160801b03165b90506001600160801b038216156125c0576004546001600160801b038381169116141561256e57600019909101905b600480546001600160801b031981166001600160801b039182168590038216179091556125c0907f00000000000000000000000000000000000000000000000000000000000000009087908516614339565b6001600160801b03811615612646576004546001600160801b03828116600160801b9092041614156125f157600019015b600480546001600160801b03600160801b808304821685900382160291811691909117909155612646907f00000000000000000000000000000000000000000000000000000000000000009087908416614339565b604080516001600160801b0380851682528316602082015281516001600160a01b0388169233927f596b573906218d3411850b26a6b437d6c4522fdb43d2d2386263f86d50b8b151929081900390910190a36000805460ff60f01b1916600160f01b1790559094909350915050565b6060806126c06132c1565b6127376126cb612d82565b858580806020026020016040519081016040528093929190818152602001838360200280828437600092018290525054600554600996959450600160a01b820460020b935061ffff600160b81b8304811693506001600160801b0390911691600160c81b9004166149fa565b915091509250929050565b600080548190600160f01b900460ff16612789576040805162461bcd60e51b81526020600482015260036024820152624c4f4b60e81b604482015290519081900360640190fd5b6000805460ff60f01b1916815560408051608081018252338152600288810b602083015287900b91810191909152819081906127e290606081016127d56001600160801b038a1661470b565b600003600f0b905261471c565b92509250925081600003945080600003935060008511806128035750600084115b15612842576003830180546001600160801b038082168089018216600160801b93849004831689019092169092029091176001600160801b0319161790555b604080516001600160801b0388168152602081018790528082018690529051600289810b92908b900b9133917f0c396cd989a39f4459b5fa1aed6a9a8dcdbc45908acfd67e028cd568da98982c919081900360600190a450506000805460ff60f01b1916600160f01b179055509094909350915050565b60008060006128c66132c1565b6128d08585614b54565b600285810b810b600090815260066020819052604080832088850b90940b8352822060038401549182900b93600160381b83046001600160a01b0316928492600160d81b820463ffffffff16928492909190600160f81b900460ff168061293657600080fd5b6003820154600681900b9850600160381b81046001600160a01b03169650600160d81b810463ffffffff169450600160f81b900460ff168061297757600080fd5b50506040805160e0810182526000546001600160a01b0381168252600160a01b8104600290810b810b810b6020840181905261ffff600160b81b8404811695850195909552600160c81b830485166060850152600160d81b8304909416608084015260ff600160e81b8304811660a0850152600160f01b909204909116151560c08301529093508e810b91900b12159050612a2057509390940396509003935090039050612aa3565b8a60020b816020015160020b1215612a94576000612a3c612d82565b6020830151604084015160055460608601519394506000938493612a72936009938893879392916001600160801b031690613b81565b9a9003989098039b505094909603929092039650909103039250612aa3915050565b50949093039650039350900390505b9250925092565b7f000000000000000000000000000000000000000000000000000000000000000081565b7f000000000000000000000000000000000000000000000000000000000000000081565b7f000000000000000000000000000000000000000000000000000000000000000081565b7f000000000000000000000000000000000000000000000000000000000000000081565b60015481565b60066020819052600091825260409091208054600182015460028301546003909301546001600160801b03831694600160801b909304600f0b93919281900b90600160381b81046001600160a01b031690600160d81b810463ffffffff1690600160f81b900460ff1688565b6000546001600160a01b031615612bef576040805162461bcd60e51b8152602060048201526002602482015261414960f01b604482015290519081900360640190fd5b6000612bfa82613e83565b9050600080612c12612c0a612d82565b600990614c1d565b6040805160e0810182526001600160a01b038816808252600288810b6020808501829052600085870181905261ffff898116606088018190529089166080880181905260a08801839052600160c0909801979097528154600160f01b6001600160a01b0319909116871762ffffff60a01b1916600160a01b62ffffff9787900b97909716969096029590951763ffffffff60b81b1916600160c81b9091021761ffff60d81b1916600160d81b9096029590951761ffff60e81b191692909217909355835191825281019190915281519395509193507f98636036cb66a9c19a37435efc1e90142190214e8abeb821bdba3f2990dd4c9592918290030190a150505050565b60008082600281900b620d89e71981612d2b57fe5b05029050600083600281900b620d89e881612d4257fe5b0502905060008460020b83830360020b81612d5957fe5b0560010190508062ffffff166001600160801b03801681612d7657fe5b0493505050505b919050565b4290565b60008363ffffffff168363ffffffff1611158015612db057508363ffffffff168263ffffffff1611155b15612dcc578163ffffffff168363ffffffff1611159050612e42565b60008463ffffffff168463ffffffff1611612df3578363ffffffff16600160201b01612dfb565b8363ffffffff165b64ffffffffff16905060008563ffffffff168463ffffffff1611612e2b578363ffffffff16600160201b01612e33565b8363ffffffff165b64ffffffffff16909111159150505b9392505050565b60008063ffffffff8316612e89576040805162461bcd60e51b8152602060048201526002602482015261042560f41b604482015290519081900360640190fd5b6040805160028082526060820183526000926020830190803683370190505090508381600081518110612eb857fe5b602002602001019063ffffffff16908163ffffffff1681525050600081600181518110612ee157fe5b63ffffffff90921660209283029190910182015260405163883bdbfd60e01b81526004810182815283516024830152835160009384936001600160a01b038b169363883bdbfd9388939192839260449091019185820191028083838b5b83811015612f56578181015183820152602001612f3e565b505050509050019250505060006040518083038186803b158015612f7957600080fd5b505afa158015612f8d573d6000803e3d6000fd5b505050506040513d6000823e601f3d908101601f191682016040908152811015612fb657600080fd5b8101908080516040519392919084600160201b821115612fd557600080fd5b908301906020820185811115612fea57600080fd5b82518660208202830111600160201b8211171561300657600080fd5b82525081516020918201928201910280838360005b8381101561303357818101518382015260200161301b565b5050505090500160405260200180516040519392919084600160201b82111561305b57600080fd5b90830190602082018581111561307057600080fd5b82518660208202830111600160201b8211171561308c57600080fd5b82525081516020918201928201910280838360005b838110156130b95781810151838201526020016130a1565b50505050905001604052505050915091506000826000815181106130d957fe5b6020026020010151836001815181106130ee57fe5b602002602001015103905060008260008151811061310857fe5b60200260200101518360018151811061311d57fe5b60200260200101510390508763ffffffff168260060b8161313a57fe5b05965060008260060b12801561316457508763ffffffff168260060b8161315d57fe5b0760060b15155b1561317157600019909601955b63ffffffff88166001600160a01b0302640100000000600160c01b03602083901b166001600160c01b038216816131a457fe5b0496505050505050509250929050565b6000806131c08661343a565b90506001600160801b036001600160a01b0382161161322f576001600160a01b038082168002908481169086161061320f5761320a600160c01b876001600160801b031683613ad2565b613227565b61322781876001600160801b0316600160c01b613ad2565b92505061329d565b60006132496001600160a01b03831680600160401b613ad2565b9050836001600160a01b0316856001600160a01b0316106132815761327c600160801b876001600160801b031683613ad2565b613299565b61329981876001600160801b0316600160801b613ad2565b9250505b50949350505050565b6001600160a01b03168002670de0b6b3a76400000260c01c90565b306001600160a01b037f000000000000000000000000000000000000000000000000000000000000000016146132f657600080fd5b565b60008060008460020b8660020b8161330c57fe5b05905060008660020b12801561333357508460020b8660020b8161332c57fe5b0760020b15155b1561333d57600019015b83156133b25760008061334f83614c69565b600182810b810b600090815260208d9052604090205460ff83169190911b8001600019019081168015159750929450909250908561339457888360ff168603026133a7565b8861339e82614c7b565b840360ff168603025b965050505050613430565b6000806133c183600101614c69565b91509150600060018260ff166001901b031990506000818b60008660010b60010b815260200190815260200160002054169050806000141595508561341357888360ff0360ff16866001010102613429565b888361341e83614d15565b0360ff168660010101025b9650505050505b5094509492505050565b60008060008360020b12613451578260020b613459565b8260020b6000035b9050620d89e8811115613497576040805162461bcd60e51b81526020600482015260016024820152601560fa1b604482015290519081900360640190fd5b6000600182166134ab57600160801b6134bd565b6ffffcb933bd6fad37aa2d162d1a5940015b70ffffffffffffffffffffffffffffffffff16905060028216156134f1576ffff97272373d413259a46990580e213a0260801c5b6004821615613510576ffff2e50f5f656932ef12357cf3c7fdcc0260801c5b600882161561352f576fffe5caca7e10e4e61c3624eaa0941cd00260801c5b601082161561354e576fffcb9843d60f6159c9db58835c9266440260801c5b602082161561356d576fff973b41fa98c081472e6896dfb254c00260801c5b604082161561358c576fff2ea16466c96a3843ec78b326b528610260801c5b60808216156135ab576ffe5dee046a99a2a811c461f1969c30530260801c5b6101008216156135cb576ffcbe86c7900a88aedcffc83b479aa3a40260801c5b6102008216156135eb576ff987a7253ac413176f2b074cf7815e540260801c5b61040082161561360b576ff3392b0822b70005940c7a398e4b70f30260801c5b61080082161561362b576fe7159475a2c29b7443b29c7fa6e889d90260801c5b61100082161561364b576fd097f3bdfd2022b8845ad8f792aa58250260801c5b61200082161561366b576fa9f746462d870fdf8a65dc1f90e061e50260801c5b61400082161561368b576f70d869a156d2a1b890bb3df62baf32f70260801c5b6180008216156136ab576f31be135f97d08fd981231505542fcfa60260801c5b620100008216156136cc576f09aa508b5b7a84e1c677de54f3e99bc90260801c5b620200008216156136ec576e5d6af8dedb81196699c329225ee6040260801c5b6204000082161561370b576d2216e584f5fa1ea926041bedfe980260801c5b62080000821615613728576b048a170391f7dc42444e8fa20260801c5b60008460020b131561374357806000198161373f57fe5b0490505b600160201b810615613756576001613759565b60005b60ff16602082901c0192505050919050565b600080548190613783906001600160a01b03166132a6565b90506000306001600160a01b03166305ecd0036040518163ffffffff1660e01b815260040160206040518083038186803b1580156137c057600080fd5b505afa1580156137d4573d6000803e3d6000fd5b505050506040513d60208110156137ea57600080fd5b5051604080516355abbe8f60e01b81526004810185905260248101839052905191925060009130916355abbe8f916044808301926020929190829003018186803b15801561383757600080fd5b505afa15801561384b573d6000803e3d6000fd5b505050506040513d602081101561386157600080fd5b50519050603281101561387b576101f49350505050610a8c565b6096811115613891576127109350505050610a8c565b610bb89350505050610a8c565b60008080806001600160a01b03808916908a1610158187128015906139235760006138d78989620f42400362ffffff16620f4240613ad2565b9050826138f0576138eb8c8c8c6001614dff565b6138fd565b6138fd8b8d8c6001614e7a565b955085811061390e578a965061391d565b61391a8c8b8386614f1a565b96505b5061396d565b8161393a576139358b8b8b6000614e7a565b613947565b6139478a8c8b6000614dff565b935083886000031061395b5789955061396d565b61396a8b8a8a60000385614f66565b95505b6001600160a01b038a81169087161482156139d05780801561398c5750815b6139a25761399d878d8c6001614e7a565b6139a4565b855b95508080156139b1575081155b6139c7576139c2878d8c6000614dff565b6139c9565b845b9450613a1a565b8080156139da5750815b6139f0576139eb8c888c6001614dff565b6139f2565b855b95508080156139ff575081155b613a1557613a108c888c6000614e7a565b613a17565b845b94505b81158015613a2a57508860000385115b15613a36578860000394505b818015613a5557508a6001600160a01b0316876001600160a01b031614155b15613a64578589039350613a81565b613a7e868962ffffff168a620f42400362ffffff1661495c565b93505b50505095509550955095915050565b6000600160ff1b8210613aa257600080fd5b5090565b808203828113156000831215146121cf57600080fd5b818101828112156000831215146121cf57600080fd5b6000808060001985870986860292508281109083900303905080613b085760008411613afd57600080fd5b508290049050612e42565b808411613b1457600080fd5b6000848688096000868103871696879004966002600389028118808a02820302808a02820302808a02820302808a02820302808a02820302808a02909103029181900381900460010186841190950394909402919094039290920491909117919091029150509392505050565b60008063ffffffff8716613c27576000898661ffff1661ffff8110613ba257fe5b60408051608081018252919092015463ffffffff808216808452600160201b8304600690810b810b900b6020850152600160581b83046001600160a01b031694840194909452600160f81b90910460ff16151560608301529092508a1614613c1357613c10818a8988614fb2565b90505b806020015181604001519250925050613d07565b868803600080613c3c8c8c858c8c8c8c615055565b91509150816000015163ffffffff168363ffffffff161415613c6e578160200151826040015194509450505050613d07565b805163ffffffff84811691161415613c96578060200151816040015194509450505050613d07565b8151815160208085015190840151918390039286039163ffffffff80841692908516910360060b81613cc457fe5b05028460200151018263ffffffff168263ffffffff1686604001518660400151036001600160a01b03160281613cf657fe5b048560400151019650965050505050505b97509795505050505050565b600295860b860b60009081526020979097526040909620600181018054909503909455938301805490920390915560038201805463ffffffff600160d81b6001600160a01b03600160381b808504821690960316909402600160381b600160d81b031990921691909117600681810b90960390950b66ffffffffffffff1666ffffffffffffff199095169490941782810485169095039093160263ffffffff60d81b1990931692909217905554600160801b9004600f0b90565b60008082600f0b1215613e3257826001600160801b03168260000384039150816001600160801b031610613e2d576040805162461bcd60e51b81526020600482015260026024820152614c5360f01b604482015290519081900360640190fd5b6121cf565b826001600160801b03168284019150816001600160801b031610156121cf576040805162461bcd60e51b81526020600482015260026024820152614c4160f01b604482015290519081900360640190fd5b60006401000276a36001600160a01b03831610801590613ebf575073fffd8963efd1fc6a506488495d951d5263988d266001600160a01b038316105b613ef4576040805162461bcd60e51b81526020600482015260016024820152602960f91b604482015290519081900360640190fd5b640100000000600160c01b03602083901b166001600160801b03811160071b81811c67ffffffffffffffff811160061b90811c63ffffffff811160051b90811c61ffff811160041b90811c60ff8111600390811b91821c600f811160021b90811c918211600190811b92831c97908811961790941790921717909117171760808110613f8857607f810383901c9150613f92565b80607f0383901b91505b908002607f81811c60ff83811c9190911c800280831c81831c1c800280841c81841c1c800280851c81851c1c800280861c81861c1c800280871c81871c1c800280881c81881c1c800280891c81891c1c8002808a1c818a1c1c8002808b1c818b1c1c8002808c1c818c1c1c8002808d1c818d1c1c8002808e1c9c81901c9c909c1c80029c8d901c9e9d607f198f0160401b60c09190911c678000000000000000161760c19b909b1c674000000000000000169a909a1760c29990991c672000000000000000169890981760c39790971c671000000000000000169690961760c49590951c670800000000000000169490941760c59390931c670400000000000000169290921760c69190911c670200000000000000161760c79190911c600160381b161760c89190911c6680000000000000161760c99190911c6640000000000000161760ca9190911c6620000000000000161760cb9190911c6610000000000000161760cc9190911c6608000000000000161760cd9190911c66040000000000001617693627a301d71055774c8581026f028f6481ab7f045a5af012a19d003aa9198101608090811d906fdb2df09e81959a81455e260799a0632f8301901d600281810b9083900b1461418f57886001600160a01b03166141738261343a565b6001600160a01b03161115614188578161418a565b805b614191565b815b9998505050505050505050565b6000806000898961ffff1661ffff81106141b457fe5b60408051608081018252919092015463ffffffff808216808452600160201b8304600690810b810b900b6020850152600160581b83046001600160a01b031694840194909452600160f81b90910460ff1615156060830152909250891614156142235788859250925050613d07565b8461ffff168461ffff1611801561424457506001850361ffff168961ffff16145b1561425157839150614255565b8491505b8161ffff168960010161ffff168161426957fe5b06925061427881898989614fb2565b8a8461ffff1661ffff811061428957fe5b825191018054602084015160408501516060909501511515600160f81b026001600160f81b036001600160a01b03909616600160581b027fff0000000000000000000000000000000000000000ffffffffffffffffffffff60069390930b66ffffffffffffff16600160201b026affffffffffffff000000001963ffffffff90971663ffffffff199095169490941795909516929092171692909217929092161790555097509795505050505050565b604080516001600160a01b038481166024830152604480830185905283518084039091018152606490920183526020820180516001600160e01b031663a9059cbb60e01b1781529251825160009485949389169392918291908083835b602083106143b55780518252601f199092019160209182019101614396565b6001836020036101000a0380198251168184511680821785525050505050509050019150506000604051808303816000865af19150503d8060008114614417576040519150601f19603f3d011682016040523d82523d6000602084013e61441c565b606091505b509150915081801561444a57508051158061444a575080806020019051602081101561444757600080fd5b50515b614480576040805162461bcd60e51b81526020600482015260026024820152612a2360f11b604482015290519081900360640190fd5b5050505050565b604080513060248083019190915282518083039091018152604490910182526020810180516001600160e01b03166370a0823160e01b17815291518151600093849384936001600160a01b037f00000000000000000000000000000000000000000000000000000000000000001693919290918291908083835b602083106145205780518252601f199092019160209182019101614501565b6001836020036101000a038019825116818451168082178552505050505050905001915050600060405180830381855afa9150503d8060008114614580576040519150601f19603f3d011682016040523d82523d6000602084013e614585565b606091505b509150915081801561459957506020815110155b6145a257600080fd5b8080602001905160208110156145b757600080fd5b50519250505090565b808201828110156121cf57600080fd5b604080513060248083019190915282518083039091018152604490910182526020810180516001600160e01b03166370a0823160e01b17815291518151600093849384936001600160a01b037f0000000000000000000000000000000000000000000000000000000000000000169391929091829190808383602083106145205780518252601f199092019160209182019101614501565b6000808361ffff16116146a6576040805162461bcd60e51b81526020600482015260016024820152604960f81b604482015290519081900360640190fd5b8261ffff168261ffff16116146bc575081612e42565b825b8261ffff168161ffff161015614702576001858261ffff1661ffff81106146e157fe5b01805463ffffffff191663ffffffff929092169190911790556001016146be565b50909392505050565b80600f81900b8114612d7d57600080fd5b60008060006147296132c1565b61473b84602001518560400151614b54565b6040805160e0810182526000546001600160a01b0381168252600160a01b8104600290810b810b900b602080840182905261ffff600160b81b8404811685870152600160c81b84048116606080870191909152600160d81b8504909116608086015260ff600160e81b8504811660a0870152600160f01b909404909316151560c0850152885190890151948901519289015193946147df949193909290919061524f565b93508460600151600f0b60001461495457846020015160020b816020015160020b12156148345761482d614816866020015161343a565b614823876040015161343a565b8760600151615404565b9250614954565b846040015160020b816020015160020b121561492a5760055460408201516001600160801b03909116906148869061486a612d82565b602085015160608601516080870151600994939291879161419e565b6000805461ffff60c81b1916600160c81b61ffff938416021761ffff60b81b1916600160b81b9390921692909202179055815160408701516148d691906148cc9061343a565b8860600151615404565b93506148f46148e8876020015161343a565b83516060890151615448565b9250614904818760600151613dcd565b600580546001600160801b0319166001600160801b039290921691909117905550614954565b61495161493a866020015161343a565b614947876040015161343a565b8760600151615448565b91505b509193909250565b6000614969848484613ad2565b90506000828061497557fe5b8486091115612e4257600019811061498c57600080fd5b6001019392505050565b6040805160609490941b6bffffffffffffffffffffffff1916602080860191909152600293840b60e890811b60348701529290930b90911b60378401528051808403601a018152603a90930181528251928201929092206000908152929052902090565b60608060008361ffff1611614a3a576040805162461bcd60e51b81526020600482015260016024820152604960f81b604482015290519081900360640190fd5b865167ffffffffffffffff81118015614a5257600080fd5b50604051908082528060200260200182016040528015614a7c578160200160208202803683370190505b509150865167ffffffffffffffff81118015614a9757600080fd5b50604051908082528060200260200182016040528015614ac1578160200160208202803683370190505b50905060005b8751811015614b4757614af28a8a8a8481518110614ae157fe5b60200260200101518a8a8a8a613b81565b848381518110614afe57fe5b60200260200101848481518110614b1157fe5b60200260200101826001600160a01b03166001600160a01b03168152508260060b60060b81525050508080600101915050614ac7565b5097509795505050505050565b8060020b8260020b12614b94576040805162461bcd60e51b8152602060048201526003602482015262544c5560e81b604482015290519081900360640190fd5b620d89e719600283900b1215614bd7576040805162461bcd60e51b8152602060048201526003602482015262544c4d60e81b604482015290519081900360640190fd5b620d89e8600282900b1315614c19576040805162461bcd60e51b815260206004820152600360248201526254554d60e81b604482015290519081900360640190fd5b5050565b6040805160808101825263ffffffff9283168082526000602083018190529282019290925260016060909101819052835463ffffffff1916909117909116600160f81b17909155908190565b60020b600881901d9161010090910790565b6000808211614c8957600080fd5b600160801b8210614c9c57608091821c91015b600160401b8210614caf57604091821c91015b600160201b8210614cc257602091821c91015b620100008210614cd457601091821c91015b6101008210614ce557600891821c91015b60108210614cf557600491821c91015b60048210614d0557600291821c91015b60028210612d7d57600101919050565b6000808211614d2357600080fd5b5060ff6001600160801b03821615614d3e57607f1901614d46565b608082901c91505b67ffffffffffffffff821615614d5f57603f1901614d67565b604082901c91505b63ffffffff821615614d7c57601f1901614d84565b602082901c91505b61ffff821615614d9757600f1901614d9f565b601082901c91505b60ff821615614db15760071901614db9565b600882901c91505b600f821615614dcb5760031901614dd3565b600482901c91505b6003821615614de55760011901614ded565b600282901c91505b6001821615612d7d5760001901919050565b6000836001600160a01b0316856001600160a01b03161115614e1f579293925b81614e4c57614e47836001600160801b03168686036001600160a01b0316600160601b613ad2565b614e6f565b614e6f836001600160801b03168686036001600160a01b0316600160601b61495c565b90505b949350505050565b6000836001600160a01b0316856001600160a01b03161115614e9a579293925b600160601b600160e01b03606084901b166001600160a01b038686038116908716614ec457600080fd5b83614ef457866001600160a01b0316614ee78383896001600160a01b0316613ad2565b81614eee57fe5b04613299565b613299614f0b8383896001600160a01b031661495c565b886001600160a01b0316615477565b600080856001600160a01b031611614f3157600080fd5b6000846001600160801b031611614f4757600080fd5b81614f5957614e478585856001615482565b614e6f8585856001615563565b600080856001600160a01b031611614f7d57600080fd5b6000846001600160801b031611614f9357600080fd5b81614fa557614e478585856000615563565b614e6f8585856000615482565b614fba615cc2565b600085600001518503905060405180608001604052808663ffffffff1681526020018263ffffffff168660020b0288602001510160060b81526020016000856001600160801b03161161500e576001615010565b845b6001600160801b031663ffffffff60801b608085901b168161502e57fe5b048860400151016001600160a01b0316815260200160011515815250915050949350505050565b61505d615cc2565b615065615cc2565b888561ffff1661ffff811061507657fe5b60408051608081018252919092015463ffffffff8116808352600160201b8204600690810b810b900b6020840152600160581b82046001600160a01b031693830193909352600160f81b900460ff161515606082015292506150da90899089612d86565b15615112578663ffffffff16826000015163ffffffff1614156150fc57613d07565b8161510983898988614fb2565b91509150613d07565b888361ffff168660010161ffff168161512757fe5b0661ffff1661ffff811061513757fe5b60408051608081018252929091015463ffffffff81168352600160201b8104600690810b810b900b60208401526001600160a01b03600160581b8204169183019190915260ff600160f81b909104161515606082018190529092506151ec57604080516080810182528a5463ffffffff81168252600160201b8104600690810b810b900b6020830152600160581b81046001600160a01b031692820192909252600160f81b90910460ff161515606082015291505b6151fb88836000015189612d86565b615232576040805162461bcd60e51b815260206004820152600360248201526213d31160ea1b604482015290519081900360640190fd5b61523f8989898887615646565b9150915097509795505050505050565b600061525e6008878787614996565b60015460025491925090600080600f87900b156153a457600061527f612d82565b60008054600554929350909182916152c99160099186918591600160a01b810460020b9161ffff600160b81b83048116926001600160801b0390921691600160c81b900416613b81565b909250905061530360068d8b8d8b8b87898b60007f00000000000000000000000000000000000000000000000000000000000000006157e4565b945061533a60068c8b8d8b8b87898b60017f00000000000000000000000000000000000000000000000000000000000000006157e4565b9350841561536e5761536e60078d7f000000000000000000000000000000000000000000000000000000000000000061599d565b83156153a0576153a060078c7f000000000000000000000000000000000000000000000000000000000000000061599d565b5050505b6000806153b660068c8c8b8a8a615a03565b90925090506153c7878a8484615aaf565b600089600f0b12156153f55783156153e4576153e460068c615c44565b82156153f5576153f560068b615c44565b50505050505095945050505050565b60008082600f0b1261542a576154256154208585856001614e7a565b613a90565b614e72565b61543d6154208585856000036000614e7a565b600003949350505050565b60008082600f0b12615464576154256154208585856001614dff565b61543d6154208585856000036000614dff565b808204910615150190565b600081156154f55760006001600160a01b038411156154b8576154b384600160601b876001600160801b0316613ad2565b6154d0565b6001600160801b038516606085901b816154ce57fe5b045b90506154ed6154e86001600160a01b038816836145c0565b615c70565b915050614e72565b60006001600160a01b038411156155235761551e84600160601b876001600160801b031661495c565b61553a565b61553a606085901b6001600160801b038716615477565b905080866001600160a01b03161161555157600080fd5b6001600160a01b038616039050614e72565b600082615571575083614e72565b600160601b600160e01b03606085901b1682156155ff576001600160a01b0386168481029085828161559f57fe5b0414156155d0578181018281106155ce576155c483896001600160a01b03168361495c565b9350505050614e72565b505b6155f6826155f1878a6001600160a01b031686816155ea57fe5b04906145c0565b615477565b92505050614e72565b6001600160a01b0386168481029085828161561657fe5b0414801561562357508082115b61562c57600080fd5b8082036155c46154e8846001600160a01b038b168461495c565b61564e615cc2565b615656615cc2565b60008361ffff168560010161ffff168161566c57fe5b0661ffff169050600060018561ffff16830103905060005b506002818301048961ffff8716828161569957fe5b0661ffff81106156a557fe5b60408051608081018252929091015463ffffffff81168352600160201b8104600690810b810b900b60208401526001600160a01b03600160581b8204169183019190915260ff600160f81b9091041615156060820181905290955061570f57806001019250615684565b898661ffff16826001018161572057fe5b0661ffff811061572c57fe5b60408051608081018252929091015463ffffffff81168352600160201b8104600690810b810b900b60208401526001600160a01b03600160581b8204169183019190915260ff600160f81b90910416151560608201528551909450600090615796908b908b612d86565b90508080156157af57506157af8a8a8760000151612d86565b156157ba57506157d7565b806157ca576001820392506157d1565b8160010193505b50615684565b5050509550959350505050565b60028a810b900b600090815260208c90526040812080546001600160801b03168261580f828d613dcd565b9050846001600160801b0316816001600160801b0316111561585d576040805162461bcd60e51b81526020600482015260026024820152614c4f60f01b604482015290519081900360640190fd5b6001600160801b038281161590821615811415945015615902578c60020b8e60020b136158ea57600183018b9055600283018a9055600383018054600160381b600160d81b031916600160381b6001600160a01b038c16021766ffffffffffffff191666ffffffffffffff60068b900b161763ffffffff60d81b1916600160d81b63ffffffff8a16021790555b6003830180546001600160f81b0316600160f81b1790555b82546001600160801b0319166001600160801b0382161783558561594b5782546159469061594190600160801b9004600f90810b810b908f900b613abc565b61470b565b61596c565b825461596c9061594190600160801b9004600f90810b810b908f900b613aa6565b8354600f9190910b6001600160801b03908116600160801b0291161790925550909c9b505050505050505050505050565b8060020b8260020b816159ac57fe5b0760020b156159ba57600080fd5b6000806159d58360020b8560020b816159cf57fe5b05614c69565b600191820b820b60009081526020979097526040909620805460ff9097169190911b90951890945550505050565b600285810b80820b60009081526020899052604080822088850b850b83529082209193849391929184918291908a900b12615a4957505060018201546002830154615a5c565b8360010154880391508360020154870390505b6000808b60020b8b60020b1215615a7e57505060018301546002840154615a91565b84600101548a0391508460020154890390505b92909803979097039b96909503949094039850939650505050505050565b6040805160a08101825285546001600160801b0390811682526001870154602083015260028701549282019290925260038601548083166060830152600160801b900490911660808201526000600f85900b615b4e5781516001600160801b0316615b46576040805162461bcd60e51b815260206004820152600260248201526104e560f41b604482015290519081900360640190fd5b508051615b5d565b8151615b5a9086613dcd565b90505b6000615b818360200151860384600001516001600160801b0316600160801b613ad2565b90506000615ba78460400151860385600001516001600160801b0316600160801b613ad2565b905086600f0b600014615bce5787546001600160801b0319166001600160801b0384161788555b60018801869055600288018590556001600160801b038216151580615bfc57506000816001600160801b0316115b15615c3a576003880180546001600160801b031981166001600160801b039182168501821617808216600160801b9182900483168501909216021790555b5050505050505050565b600290810b810b6000908152602092909252604082208281556001810183905590810182905560030155565b806001600160a01b0381168114612d7d57600080fd5b6040805160e081018252600080825260208201819052918101829052606081018290526080810182905260a0810182905260c081019190915290565b6040805160808101825260008082526020820181905291810182905260608101919091529056fea26469706673582212200364b05a48165f04c5f21db87ae573dbb1689da23f4b2bf0500c2a81aa80ebee64736f6c63430007060033","linkReferences":{}},"methodIdentifiers":{"burn(int24,int24,uint128)":"a34123a7","collect(address,int24,int24,uint128,uint128)":"4f1eb3d8","collectProtocol(address,uint128,uint128)":"85b66729","currentDynamicFee()":"56ccede7","factory()":"c45a0155","fee()":"ddca3f43","feeGrowthGlobal0X128()":"f3058399","feeGrowthGlobal1X128()":"46141319","flash(address,uint256,uint256,bytes)":"490e6cbc","getPriceDifferencePercentage(uint256,uint256)":"55abbe8f","getTWAP()":"05ecd003","increaseObservationCardinalityNext(uint16)":"32148f67","initialize(uint160)":"f637731d","liquidity()":"1a686502","maxLiquidityPerTick()":"70cf754a","mint(address,int24,int24,uint128,bytes)":"3c8a7d8d","observations(uint256)":"252c09d7","observe(uint32[])":"883bdbfd","positions(bytes32)":"514ea4bf","protocolFees()":"1ad8b03b","setFeeProtocol(uint8,uint8)":"8206a4d1","slot0()":"3850c7bd","snapshotCumulativesInside(int24,int24)":"a38807f2","swap(address,bool,int256,uint160,bytes)":"128acb08","tickBitmap(int16)":"5339c296","tickSpacing()":"d0c93a7c","ticks(int24)":"f30dba93","token0()":"0dfe1681","token1()":"d21220a7"},"id":47}