{"abi":[{"type":"function","name":"verifyCallback","inputs":[{"name":"factory","type":"address","internalType":"address"},{"name":"tokenA","type":"address","internalType":"address"},{"name":"tokenB","type":"address","internalType":"address"},{"name":"fee","type":"uint24","internalType":"uint24"}],"outputs":[{"name":"pool","type":"address","internalType":"contract IUniswapV3Pool"}],"stateMutability":"view"}],"bytecode":{"object":"0x608060405234801561001057600080fd5b50610274806100206000396000f3fe608060405234801561001057600080fd5b506004361061002b5760003560e01c80638bdb192514610030575b600080fd5b6100726004803603608081101561004657600080fd5b5080356001600160a01b03908116916020810135821691604082013516906060013562ffffff1661008e565b604080516001600160a01b039092168252519081900360200190f35b600061009c858585856100a5565b95945050505050565b600061009c856100b68686866100bb565b610111565b6100c361021e565b826001600160a01b0316846001600160a01b031611156100e1579192915b50604080516060810182526001600160a01b03948516815292909316602083015262ffffff169181019190915290565b600061011d838361013a565b9050336001600160a01b0382161461013457600080fd5b92915050565b600081602001516001600160a01b031682600001516001600160a01b03161061016257600080fd5b50805160208083015160409384015184516001600160a01b0394851681850152939091168385015262ffffff166060808401919091528351808403820181526080840185528051908301206001600160f81b031960a085015294901b6bffffffffffffffffffffffff191660a183015260b58201939093527fff07fff3d0fd7e39a4709aafe7d3a6acec28bd91aae280505eb36f745c9b3d0260d5808301919091528251808303909101815260f5909101909152805191012090565b60408051606081018252600080825260208201819052918101919091529056fea2646970667358221220721f280fa35b9a8701070eb192f20b10086f6c11e86b1c9a0b1aaa078bf6964a64736f6c63430007060033","linkReferences":{}},"methodIdentifiers":{"verifyCallback(address,address,address,uint24)":"8bdb1925"},"id":50}